{
  "contractName": "LemonadeMarketplace",
  "abi": [
    {
      "inputs": [],
      "stateMutability": "nonpayable",
      "type": "constructor"
    },
    {
      "anonymous": false,
      "inputs": [
        {
          "indexed": true,
          "internalType": "uint256",
          "name": "orderId",
          "type": "uint256"
        },
        {
          "indexed": true,
          "internalType": "address",
          "name": "bidder",
          "type": "address"
        },
        {
          "indexed": false,
          "internalType": "uint256",
          "name": "bidAmount",
          "type": "uint256"
        }
      ],
      "name": "OrderBid",
      "type": "event"
    },
    {
      "anonymous": false,
      "inputs": [
        {
          "indexed": true,
          "internalType": "uint256",
          "name": "orderId",
          "type": "uint256"
        }
      ],
      "name": "OrderCancelled",
      "type": "event"
    },
    {
      "anonymous": false,
      "inputs": [
        {
          "indexed": true,
          "internalType": "uint256",
          "name": "orderId",
          "type": "uint256"
        },
        {
          "indexed": false,
          "internalType": "enum LemonadeMarketplace.OrderKind",
          "name": "kind",
          "type": "uint8"
        },
        {
          "indexed": false,
          "internalType": "uint256",
          "name": "openFrom",
          "type": "uint256"
        },
        {
          "indexed": false,
          "internalType": "uint256",
          "name": "openTo",
          "type": "uint256"
        },
        {
          "indexed": true,
          "internalType": "address",
          "name": "maker",
          "type": "address"
        },
        {
          "indexed": false,
          "internalType": "address",
          "name": "currency",
          "type": "address"
        },
        {
          "indexed": false,
          "internalType": "uint256",
          "name": "price",
          "type": "uint256"
        },
        {
          "indexed": false,
          "internalType": "address",
          "name": "tokenContract",
          "type": "address"
        },
        {
          "indexed": false,
          "internalType": "uint256",
          "name": "tokenId",
          "type": "uint256"
        }
      ],
      "name": "OrderCreated",
      "type": "event"
    },
    {
      "anonymous": false,
      "inputs": [
        {
          "indexed": true,
          "internalType": "uint256",
          "name": "orderId",
          "type": "uint256"
        },
        {
          "indexed": true,
          "internalType": "address",
          "name": "taker",
          "type": "address"
        },
        {
          "indexed": false,
          "internalType": "uint256",
          "name": "paidAmount",
          "type": "uint256"
        }
      ],
      "name": "OrderFilled",
      "type": "event"
    },
    {
      "anonymous": false,
      "inputs": [
        {
          "indexed": false,
          "internalType": "address",
          "name": "account",
          "type": "address"
        }
      ],
      "name": "Paused",
      "type": "event"
    },
    {
      "anonymous": false,
      "inputs": [
        {
          "indexed": true,
          "internalType": "bytes32",
          "name": "role",
          "type": "bytes32"
        },
        {
          "indexed": true,
          "internalType": "bytes32",
          "name": "previousAdminRole",
          "type": "bytes32"
        },
        {
          "indexed": true,
          "internalType": "bytes32",
          "name": "newAdminRole",
          "type": "bytes32"
        }
      ],
      "name": "RoleAdminChanged",
      "type": "event"
    },
    {
      "anonymous": false,
      "inputs": [
        {
          "indexed": true,
          "internalType": "bytes32",
          "name": "role",
          "type": "bytes32"
        },
        {
          "indexed": true,
          "internalType": "address",
          "name": "account",
          "type": "address"
        },
        {
          "indexed": true,
          "internalType": "address",
          "name": "sender",
          "type": "address"
        }
      ],
      "name": "RoleGranted",
      "type": "event"
    },
    {
      "anonymous": false,
      "inputs": [
        {
          "indexed": true,
          "internalType": "bytes32",
          "name": "role",
          "type": "bytes32"
        },
        {
          "indexed": true,
          "internalType": "address",
          "name": "account",
          "type": "address"
        },
        {
          "indexed": true,
          "internalType": "address",
          "name": "sender",
          "type": "address"
        }
      ],
      "name": "RoleRevoked",
      "type": "event"
    },
    {
      "anonymous": false,
      "inputs": [
        {
          "indexed": false,
          "internalType": "address",
          "name": "account",
          "type": "address"
        }
      ],
      "name": "Unpaused",
      "type": "event"
    },
    {
      "inputs": [],
      "name": "DEFAULT_ADMIN_ROLE",
      "outputs": [
        {
          "internalType": "bytes32",
          "name": "",
          "type": "bytes32"
        }
      ],
      "stateMutability": "view",
      "type": "function"
    },
    {
      "inputs": [],
      "name": "PAUSER_ROLE",
      "outputs": [
        {
          "internalType": "bytes32",
          "name": "",
          "type": "bytes32"
        }
      ],
      "stateMutability": "view",
      "type": "function"
    },
    {
      "inputs": [
        {
          "internalType": "bytes32",
          "name": "role",
          "type": "bytes32"
        }
      ],
      "name": "getRoleAdmin",
      "outputs": [
        {
          "internalType": "bytes32",
          "name": "",
          "type": "bytes32"
        }
      ],
      "stateMutability": "view",
      "type": "function"
    },
    {
      "inputs": [
        {
          "internalType": "bytes32",
          "name": "role",
          "type": "bytes32"
        },
        {
          "internalType": "uint256",
          "name": "index",
          "type": "uint256"
        }
      ],
      "name": "getRoleMember",
      "outputs": [
        {
          "internalType": "address",
          "name": "",
          "type": "address"
        }
      ],
      "stateMutability": "view",
      "type": "function"
    },
    {
      "inputs": [
        {
          "internalType": "bytes32",
          "name": "role",
          "type": "bytes32"
        }
      ],
      "name": "getRoleMemberCount",
      "outputs": [
        {
          "internalType": "uint256",
          "name": "",
          "type": "uint256"
        }
      ],
      "stateMutability": "view",
      "type": "function"
    },
    {
      "inputs": [
        {
          "internalType": "bytes32",
          "name": "role",
          "type": "bytes32"
        },
        {
          "internalType": "address",
          "name": "account",
          "type": "address"
        }
      ],
      "name": "grantRole",
      "outputs": [],
      "stateMutability": "nonpayable",
      "type": "function"
    },
    {
      "inputs": [
        {
          "internalType": "bytes32",
          "name": "role",
          "type": "bytes32"
        },
        {
          "internalType": "address",
          "name": "account",
          "type": "address"
        }
      ],
      "name": "hasRole",
      "outputs": [
        {
          "internalType": "bool",
          "name": "",
          "type": "bool"
        }
      ],
      "stateMutability": "view",
      "type": "function"
    },
    {
      "inputs": [],
      "name": "paused",
      "outputs": [
        {
          "internalType": "bool",
          "name": "",
          "type": "bool"
        }
      ],
      "stateMutability": "view",
      "type": "function"
    },
    {
      "inputs": [
        {
          "internalType": "bytes32",
          "name": "role",
          "type": "bytes32"
        },
        {
          "internalType": "address",
          "name": "account",
          "type": "address"
        }
      ],
      "name": "renounceRole",
      "outputs": [],
      "stateMutability": "nonpayable",
      "type": "function"
    },
    {
      "inputs": [
        {
          "internalType": "bytes32",
          "name": "role",
          "type": "bytes32"
        },
        {
          "internalType": "address",
          "name": "account",
          "type": "address"
        }
      ],
      "name": "revokeRole",
      "outputs": [],
      "stateMutability": "nonpayable",
      "type": "function"
    },
    {
      "inputs": [
        {
          "internalType": "bytes4",
          "name": "interfaceId",
          "type": "bytes4"
        }
      ],
      "name": "supportsInterface",
      "outputs": [
        {
          "internalType": "bool",
          "name": "",
          "type": "bool"
        }
      ],
      "stateMutability": "view",
      "type": "function"
    },
    {
      "inputs": [
        {
          "internalType": "uint256",
          "name": "orderId",
          "type": "uint256"
        }
      ],
      "name": "order",
      "outputs": [
        {
          "internalType": "enum LemonadeMarketplace.OrderKind",
          "name": "",
          "type": "uint8"
        },
        {
          "internalType": "bool",
          "name": "",
          "type": "bool"
        },
        {
          "internalType": "uint256",
          "name": "",
          "type": "uint256"
        },
        {
          "internalType": "uint256",
          "name": "",
          "type": "uint256"
        },
        {
          "internalType": "address",
          "name": "",
          "type": "address"
        },
        {
          "internalType": "address",
          "name": "",
          "type": "address"
        },
        {
          "internalType": "uint256",
          "name": "",
          "type": "uint256"
        },
        {
          "internalType": "uint256",
          "name": "",
          "type": "uint256"
        },
        {
          "internalType": "address",
          "name": "",
          "type": "address"
        },
        {
          "internalType": "uint256",
          "name": "",
          "type": "uint256"
        }
      ],
      "stateMutability": "view",
      "type": "function"
    },
    {
      "inputs": [
        {
          "internalType": "uint256",
          "name": "orderId",
          "type": "uint256"
        }
      ],
      "name": "token",
      "outputs": [
        {
          "internalType": "address",
          "name": "",
          "type": "address"
        },
        {
          "internalType": "uint256",
          "name": "",
          "type": "uint256"
        }
      ],
      "stateMutability": "view",
      "type": "function"
    },
    {
      "inputs": [
        {
          "internalType": "enum LemonadeMarketplace.OrderKind",
          "name": "kind",
          "type": "uint8"
        },
        {
          "internalType": "uint256",
          "name": "openFrom",
          "type": "uint256"
        },
        {
          "internalType": "uint256",
          "name": "openTo",
          "type": "uint256"
        },
        {
          "internalType": "address",
          "name": "currency",
          "type": "address"
        },
        {
          "internalType": "uint256",
          "name": "price",
          "type": "uint256"
        },
        {
          "internalType": "address",
          "name": "tokenContract",
          "type": "address"
        },
        {
          "internalType": "uint256",
          "name": "tokenId",
          "type": "uint256"
        }
      ],
      "name": "createOrder",
      "outputs": [
        {
          "internalType": "uint256",
          "name": "",
          "type": "uint256"
        }
      ],
      "stateMutability": "nonpayable",
      "type": "function"
    },
    {
      "inputs": [
        {
          "internalType": "uint256",
          "name": "orderId",
          "type": "uint256"
        }
      ],
      "name": "cancelOrder",
      "outputs": [],
      "stateMutability": "nonpayable",
      "type": "function"
    },
    {
      "inputs": [
        {
          "internalType": "uint256",
          "name": "orderId",
          "type": "uint256"
        },
        {
          "internalType": "uint256",
          "name": "amount",
          "type": "uint256"
        }
      ],
      "name": "bidOrder",
      "outputs": [],
      "stateMutability": "nonpayable",
      "type": "function"
    },
    {
      "inputs": [
        {
          "internalType": "uint256",
          "name": "orderId",
          "type": "uint256"
        },
        {
          "internalType": "uint256",
          "name": "amount",
          "type": "uint256"
        }
      ],
      "name": "fillOrder",
      "outputs": [],
      "stateMutability": "nonpayable",
      "type": "function"
    },
    {
      "inputs": [],
      "name": "pause",
      "outputs": [],
      "stateMutability": "nonpayable",
      "type": "function"
    },
    {
      "inputs": [],
      "name": "unpause",
      "outputs": [],
      "stateMutability": "nonpayable",
      "type": "function"
    }
  ],
  "bytecode": "0x60806040523480156200001157600080fd5b506000600260006101000a81548160ff021916908315150217905550620000516000801b620000456200009860201b60201c565b620000a060201b60201c565b620000927f65d7a28e3265b37a6474929f336521b332c1681b933f6cb9f3376673440d862a620000866200009860201b60201c565b620000a060201b60201c565b6200032e565b600033905090565b620000b78282620000e860201b620031241760201c565b620000e38160016000858152602001908152602001600020620000fe60201b620031321790919060201c565b505050565b620000fa82826200013660201b60201c565b5050565b60006200012e836000018373ffffffffffffffffffffffffffffffffffffffff1660001b6200022760201b60201c565b905092915050565b620001488282620002a160201b60201c565b6200022357600160008084815260200190815260200160002060000160008373ffffffffffffffffffffffffffffffffffffffff1673ffffffffffffffffffffffffffffffffffffffff16815260200190815260200160002060006101000a81548160ff021916908315150217905550620001c86200009860201b60201c565b73ffffffffffffffffffffffffffffffffffffffff168173ffffffffffffffffffffffffffffffffffffffff16837f2f8788117e7eff1d82e926ec794901d17c78024a50270940304540a733656f0d60405160405180910390a45b5050565b60006200023b83836200030b60201b60201c565b620002965782600001829080600181540180825580915050600190039060005260206000200160009091909190915055826000018054905083600101600084815260200190815260200160002081905550600190506200029b565b600090505b92915050565b600080600084815260200190815260200160002060000160008373ffffffffffffffffffffffffffffffffffffffff1673ffffffffffffffffffffffffffffffffffffffff16815260200190815260200160002060009054906101000a900460ff16905092915050565b600080836001016000848152602001908152602001600020541415905092915050565b614ff9806200033e6000396000f3fe608060405234801561001057600080fd5b50600436106101215760003560e01c80635c975abb116100ad578063b858fb5f11610071578063b858fb5f14610324578063c37dfc5b14610340578063ca15c8731461035c578063d547741f1461038c578063e63ab1e9146103a857610121565b80635c975abb1461027e5780638456cb591461029c5780639010d07c146102a657806391d14854146102d6578063a217fddf1461030657610121565b8063248a9ca3116100f4578063248a9ca3146101f05780632f2ff15d1461022057806336568abe1461023c5780633f4ba83a14610258578063514fcac71461026257610121565b806301ffc9a714610126578063044215c6146101565780630c1097101461018757806321603f43146101b7575b600080fd5b610140600480360381019061013b9190613d48565b6103c6565b60405161014d919061423c565b60405180910390f35b610170600480360381019061016b9190613e0f565b610440565b60405161017e929190614213565b60405180910390f35b6101a1600480360381019061019c9190613d71565b6107af565b6040516101ae919061463d565b60405180910390f35b6101d160048036038101906101cc9190613e0f565b610efe565b6040516101e79a99989796959493929190614272565b60405180910390f35b61020a60048036038101906102059190613ca7565b6112bb565b6040516102179190614257565b60405180910390f35b61023a60048036038101906102359190613cd0565b6112da565b005b61025660048036038101906102519190613cd0565b61130e565b005b610260611342565b005b61027c60048036038101906102779190613e0f565b6113bc565b005b610286611983565b604051610293919061423c565b60405180910390f35b6102a461199a565b005b6102c060048036038101906102bb9190613d0c565b611a14565b6040516102cd91906141c1565b60405180910390f35b6102f060048036038101906102eb9190613cd0565b611a43565b6040516102fd919061423c565b60405180910390f35b61030e611aad565b60405161031b9190614257565b60405180910390f35b61033e60048036038101906103399190613e38565b611ab4565b005b61035a60048036038101906103559190613e38565b612476565b005b61037660048036038101906103719190613ca7565b6130a8565b604051610383919061463d565b60405180910390f35b6103a660048036038101906103a19190613cd0565b6130cc565b005b6103b0613100565b6040516103bd9190614257565b60405180910390f35b60007f5a05180f000000000000000000000000000000000000000000000000000000007bffffffffffffffffffffffffffffffffffffffffffffffffffffffff1916827bffffffffffffffffffffffffffffffffffffffffffffffffffffffff19161480610439575061043882613162565b5b9050919050565b60008082600073ffffffffffffffffffffffffffffffffffffffff166004600083815260200190815260200160002060030160009054906101000a900473ffffffffffffffffffffffffffffffffffffffff1673ffffffffffffffffffffffffffffffffffffffff1614156104ea576040517f08c379a00000000000000000000000000000000000000000000000000000000081526004016104e19061453d565b60405180910390fd5b600060046000868152602001908152602001600020604051806101a00160405290816000820160009054906101000a900460ff166001811115610556577f4e487b7100000000000000000000000000000000000000000000000000000000600052602160045260246000fd5b600181111561058e577f4e487b7100000000000000000000000000000000000000000000000000000000600052602160045260246000fd5b81526020016000820160019054906101000a900460ff1615151515815260200160018201548152602001600282015481526020016003820160009054906101000a900473ffffffffffffffffffffffffffffffffffffffff1673ffffffffffffffffffffffffffffffffffffffff1673ffffffffffffffffffffffffffffffffffffffff1681526020016004820160009054906101000a900473ffffffffffffffffffffffffffffffffffffffff1673ffffffffffffffffffffffffffffffffffffffff1673ffffffffffffffffffffffffffffffffffffffff168152602001600582015481526020016006820160009054906101000a900473ffffffffffffffffffffffffffffffffffffffff1673ffffffffffffffffffffffffffffffffffffffff1673ffffffffffffffffffffffffffffffffffffffff168152602001600782015481526020016008820160009054906101000a900473ffffffffffffffffffffffffffffffffffffffff1673ffffffffffffffffffffffffffffffffffffffff1673ffffffffffffffffffffffffffffffffffffffff16815260200160098201548152602001600a820160009054906101000a900473ffffffffffffffffffffffffffffffffffffffff1673ffffffffffffffffffffffffffffffffffffffff1673ffffffffffffffffffffffffffffffffffffffff168152602001600b8201548152505090508060e00151816101000151935093505050915091565b60006107b9611983565b156107f9576040517f08c379a00000000000000000000000000000000000000000000000000000000081526004016107f09061449d565b60405180910390fd5b8273ffffffffffffffffffffffffffffffffffffffff166323b872dd61081d6131dc565b30856040518463ffffffff1660e01b815260040161083d939291906141dc565b600060405180830381600087803b15801561085757600080fd5b505af115801561086b573d6000803e3d6000fd5b50505050600061087b60036131e4565b9050604051806101a001604052808a60018111156108c2577f4e487b7100000000000000000000000000000000000000000000000000000000600052602160045260246000fd5b81526020016001151581526020018981526020018881526020016108e46131dc565b73ffffffffffffffffffffffffffffffffffffffff1681526020018773ffffffffffffffffffffffffffffffffffffffff1681526020018681526020018573ffffffffffffffffffffffffffffffffffffffff168152602001848152602001600073ffffffffffffffffffffffffffffffffffffffff16815260200160008152602001600073ffffffffffffffffffffffffffffffffffffffff16815260200160008152506004600083815260200190815260200160002060008201518160000160006101000a81548160ff021916908360018111156109ed577f4e487b7100000000000000000000000000000000000000000000000000000000600052602160045260246000fd5b021790555060208201518160000160016101000a81548160ff021916908315150217905550604082015181600101556060820151816002015560808201518160030160006101000a81548173ffffffffffffffffffffffffffffffffffffffff021916908373ffffffffffffffffffffffffffffffffffffffff16021790555060a08201518160040160006101000a81548173ffffffffffffffffffffffffffffffffffffffff021916908373ffffffffffffffffffffffffffffffffffffffff16021790555060c0820151816005015560e08201518160060160006101000a81548173ffffffffffffffffffffffffffffffffffffffff021916908373ffffffffffffffffffffffffffffffffffffffff16021790555061010082015181600701556101208201518160080160006101000a81548173ffffffffffffffffffffffffffffffffffffffff021916908373ffffffffffffffffffffffffffffffffffffffff160217905550610140820151816009015561016082015181600a0160006101000a81548173ffffffffffffffffffffffffffffffffffffffff021916908373ffffffffffffffffffffffffffffffffffffffff16021790555061018082015181600b0155905050610bc360036131f2565b600060046000838152602001908152602001600020604051806101a00160405290816000820160009054906101000a900460ff166001811115610c2f577f4e487b7100000000000000000000000000000000000000000000000000000000600052602160045260246000fd5b6001811115610c67577f4e487b7100000000000000000000000000000000000000000000000000000000600052602160045260246000fd5b81526020016000820160019054906101000a900460ff1615151515815260200160018201548152602001600282015481526020016003820160009054906101000a900473ffffffffffffffffffffffffffffffffffffffff1673ffffffffffffffffffffffffffffffffffffffff1673ffffffffffffffffffffffffffffffffffffffff1681526020016004820160009054906101000a900473ffffffffffffffffffffffffffffffffffffffff1673ffffffffffffffffffffffffffffffffffffffff1673ffffffffffffffffffffffffffffffffffffffff168152602001600582015481526020016006820160009054906101000a900473ffffffffffffffffffffffffffffffffffffffff1673ffffffffffffffffffffffffffffffffffffffff1673ffffffffffffffffffffffffffffffffffffffff168152602001600782015481526020016008820160009054906101000a900473ffffffffffffffffffffffffffffffffffffffff1673ffffffffffffffffffffffffffffffffffffffff1673ffffffffffffffffffffffffffffffffffffffff16815260200160098201548152602001600a820160009054906101000a900473ffffffffffffffffffffffffffffffffffffffff1673ffffffffffffffffffffffffffffffffffffffff1673ffffffffffffffffffffffffffffffffffffffff168152602001600b820154815250509050806080015173ffffffffffffffffffffffffffffffffffffffff16827f4e400f43dce6cc22df28146360114559ffae81b0644d4752872c7def6d77319e8360000151846040015185606001518660a001518760c001518860e00151896101000151604051610ee6979695949392919061430e565b60405180910390a38192505050979650505050505050565b6000806000806000806000806000808a600073ffffffffffffffffffffffffffffffffffffffff166004600083815260200190815260200160002060030160009054906101000a900473ffffffffffffffffffffffffffffffffffffffff1673ffffffffffffffffffffffffffffffffffffffff161415610fb4576040517f08c379a0000000000000000000000000000000000000000000000000000000008152600401610fab9061453d565b60405180910390fd5b6000600460008e8152602001908152602001600020604051806101a00160405290816000820160009054906101000a900460ff166001811115611020577f4e487b7100000000000000000000000000000000000000000000000000000000600052602160045260246000fd5b6001811115611058577f4e487b7100000000000000000000000000000000000000000000000000000000600052602160045260246000fd5b81526020016000820160019054906101000a900460ff1615151515815260200160018201548152602001600282015481526020016003820160009054906101000a900473ffffffffffffffffffffffffffffffffffffffff1673ffffffffffffffffffffffffffffffffffffffff1673ffffffffffffffffffffffffffffffffffffffff1681526020016004820160009054906101000a900473ffffffffffffffffffffffffffffffffffffffff1673ffffffffffffffffffffffffffffffffffffffff1673ffffffffffffffffffffffffffffffffffffffff168152602001600582015481526020016006820160009054906101000a900473ffffffffffffffffffffffffffffffffffffffff1673ffffffffffffffffffffffffffffffffffffffff1673ffffffffffffffffffffffffffffffffffffffff168152602001600782015481526020016008820160009054906101000a900473ffffffffffffffffffffffffffffffffffffffff1673ffffffffffffffffffffffffffffffffffffffff1673ffffffffffffffffffffffffffffffffffffffff16815260200160098201548152602001600a820160009054906101000a900473ffffffffffffffffffffffffffffffffffffffff1673ffffffffffffffffffffffffffffffffffffffff1673ffffffffffffffffffffffffffffffffffffffff168152602001600b820154815250509050806000015181602001518260400151836060015184608001518560a001518660c001518761014001518861016001518961018001519b509b509b509b509b509b509b509b509b509b5050509193959799509193959799565b6000806000838152602001908152602001600020600101549050919050565b6112e48282613208565b611309816001600085815260200190815260200160002061313290919063ffffffff16565b505050565b611318828261326e565b61133d81600160008581526020019081526020016000206132f190919063ffffffff16565b505050565b6113737f65d7a28e3265b37a6474929f336521b332c1681b933f6cb9f3376673440d862a61136e6131dc565b611a43565b6113b2576040517f08c379a00000000000000000000000000000000000000000000000000000000081526004016113a99061459d565b60405180910390fd5b6113ba613321565b565b6113c4611983565b15611404576040517f08c379a00000000000000000000000000000000000000000000000000000000081526004016113fb9061449d565b60405180910390fd5b80600073ffffffffffffffffffffffffffffffffffffffff166004600083815260200190815260200160002060030160009054906101000a900473ffffffffffffffffffffffffffffffffffffffff1673ffffffffffffffffffffffffffffffffffffffff1614156114ab576040517f08c379a00000000000000000000000000000000000000000000000000000000081526004016114a29061453d565b60405180910390fd5b600060046000848152602001908152602001600020604051806101a00160405290816000820160009054906101000a900460ff166001811115611517577f4e487b7100000000000000000000000000000000000000000000000000000000600052602160045260246000fd5b600181111561154f577f4e487b7100000000000000000000000000000000000000000000000000000000600052602160045260246000fd5b81526020016000820160019054906101000a900460ff1615151515815260200160018201548152602001600282015481526020016003820160009054906101000a900473ffffffffffffffffffffffffffffffffffffffff1673ffffffffffffffffffffffffffffffffffffffff1673ffffffffffffffffffffffffffffffffffffffff1681526020016004820160009054906101000a900473ffffffffffffffffffffffffffffffffffffffff1673ffffffffffffffffffffffffffffffffffffffff1673ffffffffffffffffffffffffffffffffffffffff168152602001600582015481526020016006820160009054906101000a900473ffffffffffffffffffffffffffffffffffffffff1673ffffffffffffffffffffffffffffffffffffffff1673ffffffffffffffffffffffffffffffffffffffff168152602001600782015481526020016008820160009054906101000a900473ffffffffffffffffffffffffffffffffffffffff1673ffffffffffffffffffffffffffffffffffffffff1673ffffffffffffffffffffffffffffffffffffffff16815260200160098201548152602001600a820160009054906101000a900473ffffffffffffffffffffffffffffffffffffffff1673ffffffffffffffffffffffffffffffffffffffff1673ffffffffffffffffffffffffffffffffffffffff168152602001600b8201548152505090506117626131dc565b73ffffffffffffffffffffffffffffffffffffffff16816080015173ffffffffffffffffffffffffffffffffffffffff1614806117af57506117ae6000801b6117a96131dc565b611a43565b5b6117ee576040517f08c379a00000000000000000000000000000000000000000000000000000000081526004016117e59061451d565b60405180910390fd5b8060200151611832576040517f08c379a0000000000000000000000000000000000000000000000000000000008152600401611829906144fd565b60405180910390fd5b600073ffffffffffffffffffffffffffffffffffffffff1681610120015173ffffffffffffffffffffffffffffffffffffffff16146118a6576040517f08c379a000000000000000000000000000000000000000000000000000000000815260040161189d906144dd565b60405180910390fd5b8060e0015173ffffffffffffffffffffffffffffffffffffffff166342842e0e3083608001518461010001516040518463ffffffff1660e01b81526004016118f0939291906141dc565b600060405180830381600087803b15801561190a57600080fd5b505af115801561191e573d6000803e3d6000fd5b5050505060006004600085815260200190815260200160002060000160016101000a81548160ff021916908315150217905550827f61b9399f2f0f32ca39ce8d7be32caed5ec22fe07a6daba3a467ed479ec60658260405160405180910390a2505050565b6000600260009054906101000a900460ff16905090565b6119cb7f65d7a28e3265b37a6474929f336521b332c1681b933f6cb9f3376673440d862a6119c66131dc565b611a43565b611a0a576040517f08c379a0000000000000000000000000000000000000000000000000000000008152600401611a01906143fd565b60405180910390fd5b611a126133c3565b565b6000611a3b826001600086815260200190815260200160002061346690919063ffffffff16565b905092915050565b600080600084815260200190815260200160002060000160008373ffffffffffffffffffffffffffffffffffffffff1673ffffffffffffffffffffffffffffffffffffffff16815260200190815260200160002060009054906101000a900460ff16905092915050565b6000801b81565b611abc611983565b15611afc576040517f08c379a0000000000000000000000000000000000000000000000000000000008152600401611af39061449d565b60405180910390fd5b81600073ffffffffffffffffffffffffffffffffffffffff166004600083815260200190815260200160002060030160009054906101000a900473ffffffffffffffffffffffffffffffffffffffff1673ffffffffffffffffffffffffffffffffffffffff161415611ba3576040517f08c379a0000000000000000000000000000000000000000000000000000000008152600401611b9a9061453d565b60405180910390fd5b600060046000858152602001908152602001600020604051806101a00160405290816000820160009054906101000a900460ff166001811115611c0f577f4e487b7100000000000000000000000000000000000000000000000000000000600052602160045260246000fd5b6001811115611c47577f4e487b7100000000000000000000000000000000000000000000000000000000600052602160045260246000fd5b81526020016000820160019054906101000a900460ff1615151515815260200160018201548152602001600282015481526020016003820160009054906101000a900473ffffffffffffffffffffffffffffffffffffffff1673ffffffffffffffffffffffffffffffffffffffff1673ffffffffffffffffffffffffffffffffffffffff1681526020016004820160009054906101000a900473ffffffffffffffffffffffffffffffffffffffff1673ffffffffffffffffffffffffffffffffffffffff1673ffffffffffffffffffffffffffffffffffffffff168152602001600582015481526020016006820160009054906101000a900473ffffffffffffffffffffffffffffffffffffffff1673ffffffffffffffffffffffffffffffffffffffff1673ffffffffffffffffffffffffffffffffffffffff168152602001600782015481526020016008820160009054906101000a900473ffffffffffffffffffffffffffffffffffffffff1673ffffffffffffffffffffffffffffffffffffffff1673ffffffffffffffffffffffffffffffffffffffff16815260200160098201548152602001600a820160009054906101000a900473ffffffffffffffffffffffffffffffffffffffff1673ffffffffffffffffffffffffffffffffffffffff1673ffffffffffffffffffffffffffffffffffffffff168152602001600b820154815250509050600180811115611e8b577f4e487b7100000000000000000000000000000000000000000000000000000000600052602160045260246000fd5b81600001516001811115611ec8577f4e487b7100000000000000000000000000000000000000000000000000000000600052602160045260246000fd5b14611f08576040517f08c379a0000000000000000000000000000000000000000000000000000000008152600401611eff9061445d565b60405180910390fd5b8060200151611f4c576040517f08c379a0000000000000000000000000000000000000000000000000000000008152600401611f439061443d565b60405180910390fd5b600081604001511480611f63575080604001514210155b611fa2576040517f08c379a0000000000000000000000000000000000000000000000000000000008152600401611f999061457d565b60405180910390fd5b600081606001511480611fb85750806060015142105b611ff7576040517f08c379a0000000000000000000000000000000000000000000000000000000008152600401611fee9061441d565b60405180910390fd5b828160c00151111561203e576040517f08c379a00000000000000000000000000000000000000000000000000000000081526004016120359061455d565b60405180910390fd5b600073ffffffffffffffffffffffffffffffffffffffff1681610120015173ffffffffffffffffffffffffffffffffffffffff16146120d95782816101400151106120be576040517f08c379a00000000000000000000000000000000000000000000000000000000081526004016120b59061461d565b60405180910390fd5b6120d88160a0015130836101200151846101400151613480565b5b6120e16131dc565b6004600086815260200190815260200160002060080160006101000a81548173ffffffffffffffffffffffffffffffffffffffff021916908373ffffffffffffffffffffffffffffffffffffffff16021790555082600460008681526020019081526020016000206009018190555060046000858152602001908152602001600020604051806101a00160405290816000820160009054906101000a900460ff1660018111156121ba577f4e487b7100000000000000000000000000000000000000000000000000000000600052602160045260246000fd5b60018111156121f2577f4e487b7100000000000000000000000000000000000000000000000000000000600052602160045260246000fd5b81526020016000820160019054906101000a900460ff1615151515815260200160018201548152602001600282015481526020016003820160009054906101000a900473ffffffffffffffffffffffffffffffffffffffff1673ffffffffffffffffffffffffffffffffffffffff1673ffffffffffffffffffffffffffffffffffffffff1681526020016004820160009054906101000a900473ffffffffffffffffffffffffffffffffffffffff1673ffffffffffffffffffffffffffffffffffffffff1673ffffffffffffffffffffffffffffffffffffffff168152602001600582015481526020016006820160009054906101000a900473ffffffffffffffffffffffffffffffffffffffff1673ffffffffffffffffffffffffffffffffffffffff1673ffffffffffffffffffffffffffffffffffffffff168152602001600782015481526020016008820160009054906101000a900473ffffffffffffffffffffffffffffffffffffffff1673ffffffffffffffffffffffffffffffffffffffff1673ffffffffffffffffffffffffffffffffffffffff16815260200160098201548152602001600a820160009054906101000a900473ffffffffffffffffffffffffffffffffffffffff1673ffffffffffffffffffffffffffffffffffffffff1673ffffffffffffffffffffffffffffffffffffffff168152602001600b8201548152505090506124178160a0015182610120015130846101400151613480565b80610120015173ffffffffffffffffffffffffffffffffffffffff16847f43c168f1d9d74d73325ab680f380bc731699766781190d47b123572b01b2fa28836101400151604051612468919061463d565b60405180910390a350505050565b61247e611983565b156124be576040517f08c379a00000000000000000000000000000000000000000000000000000000081526004016124b59061449d565b60405180910390fd5b81600073ffffffffffffffffffffffffffffffffffffffff166004600083815260200190815260200160002060030160009054906101000a900473ffffffffffffffffffffffffffffffffffffffff1673ffffffffffffffffffffffffffffffffffffffff161415612565576040517f08c379a000000000000000000000000000000000000000000000000000000000815260040161255c9061453d565b60405180910390fd5b600060046000858152602001908152602001600020604051806101a00160405290816000820160009054906101000a900460ff1660018111156125d1577f4e487b7100000000000000000000000000000000000000000000000000000000600052602160045260246000fd5b6001811115612609577f4e487b7100000000000000000000000000000000000000000000000000000000600052602160045260246000fd5b81526020016000820160019054906101000a900460ff1615151515815260200160018201548152602001600282015481526020016003820160009054906101000a900473ffffffffffffffffffffffffffffffffffffffff1673ffffffffffffffffffffffffffffffffffffffff1673ffffffffffffffffffffffffffffffffffffffff1681526020016004820160009054906101000a900473ffffffffffffffffffffffffffffffffffffffff1673ffffffffffffffffffffffffffffffffffffffff1673ffffffffffffffffffffffffffffffffffffffff168152602001600582015481526020016006820160009054906101000a900473ffffffffffffffffffffffffffffffffffffffff1673ffffffffffffffffffffffffffffffffffffffff1673ffffffffffffffffffffffffffffffffffffffff168152602001600782015481526020016008820160009054906101000a900473ffffffffffffffffffffffffffffffffffffffff1673ffffffffffffffffffffffffffffffffffffffff1673ffffffffffffffffffffffffffffffffffffffff16815260200160098201548152602001600a820160009054906101000a900473ffffffffffffffffffffffffffffffffffffffff1673ffffffffffffffffffffffffffffffffffffffff1673ffffffffffffffffffffffffffffffffffffffff168152602001600b8201548152505090508060200151612858576040517f08c379a000000000000000000000000000000000000000000000000000000000815260040161284f906143dd565b60405180910390fd5b60006004600086815260200190815260200160002060000160016101000a81548160ff02191690831515021790555060008060018111156128c2577f4e487b7100000000000000000000000000000000000000000000000000000000600052602160045260246000fd5b826000015160018111156128ff577f4e487b7100000000000000000000000000000000000000000000000000000000600052602160045260246000fd5b14156129d257838260c00151111561294c576040517f08c379a0000000000000000000000000000000000000000000000000000000008152600401612943906145dd565b60405180910390fd5b6129546131dc565b60046000878152602001908152602001600020600a0160006101000a81548173ffffffffffffffffffffffffffffffffffffffff021916908373ffffffffffffffffffffffffffffffffffffffff1602179055508360046000878152602001908152602001600020600b01819055506129cb6131dc565b9050612bd6565b600180811115612a0b577f4e487b7100000000000000000000000000000000000000000000000000000000600052602160045260246000fd5b82600001516001811115612a48577f4e487b7100000000000000000000000000000000000000000000000000000000600052602160045260246000fd5b1415612bd557612a566131dc565b73ffffffffffffffffffffffffffffffffffffffff16826080015173ffffffffffffffffffffffffffffffffffffffff161480612aa35750612aa26000801b612a9d6131dc565b611a43565b5b612ae2576040517f08c379a0000000000000000000000000000000000000000000000000000000008152600401612ad9906144bd565b60405180910390fd5b600073ffffffffffffffffffffffffffffffffffffffff1682610120015173ffffffffffffffffffffffffffffffffffffffff161415612b57576040517f08c379a0000000000000000000000000000000000000000000000000000000008152600401612b4e906145bd565b60405180910390fd5b81610120015160046000878152602001908152602001600020600a0160006101000a81548173ffffffffffffffffffffffffffffffffffffffff021916908373ffffffffffffffffffffffffffffffffffffffff16021790555081610140015160046000878152602001908152602001600020600b01819055503090505b5b60046000868152602001908152602001600020604051806101a00160405290816000820160009054906101000a900460ff166001811115612c40577f4e487b7100000000000000000000000000000000000000000000000000000000600052602160045260246000fd5b6001811115612c78577f4e487b7100000000000000000000000000000000000000000000000000000000600052602160045260246000fd5b81526020016000820160019054906101000a900460ff1615151515815260200160018201548152602001600282015481526020016003820160009054906101000a900473ffffffffffffffffffffffffffffffffffffffff1673ffffffffffffffffffffffffffffffffffffffff1673ffffffffffffffffffffffffffffffffffffffff1681526020016004820160009054906101000a900473ffffffffffffffffffffffffffffffffffffffff1673ffffffffffffffffffffffffffffffffffffffff1673ffffffffffffffffffffffffffffffffffffffff168152602001600582015481526020016006820160009054906101000a900473ffffffffffffffffffffffffffffffffffffffff1673ffffffffffffffffffffffffffffffffffffffff1673ffffffffffffffffffffffffffffffffffffffff168152602001600782015481526020016008820160009054906101000a900473ffffffffffffffffffffffffffffffffffffffff1673ffffffffffffffffffffffffffffffffffffffff1673ffffffffffffffffffffffffffffffffffffffff16815260200160098201548152602001600a820160009054906101000a900473ffffffffffffffffffffffffffffffffffffffff1673ffffffffffffffffffffffffffffffffffffffff1673ffffffffffffffffffffffffffffffffffffffff168152602001600b82015481525050915060008261018001511115612fcb57600082610180015190508260e0015173ffffffffffffffffffffffffffffffffffffffff1663e814cb718461010001516040518263ffffffff1660e01b8152600401612edd919061463d565b604080518083038186803b158015612ef457600080fd5b505afa925050508015612f2557506040513d601f19601f82011682018060405250810190612f229190613c42565b60015b612f2e57612fab565b8173ffffffffffffffffffffffffffffffffffffffff16856080015173ffffffffffffffffffffffffffffffffffffffff1614612fa8576000670de0b6b3a76400008285612f7c91906146f0565b612f8691906146bf565b9050612f988660a00151868584613480565b8084612fa4919061474a565b9350505b50505b6000811115612fc957612fc88360a0015183856080015184613480565b5b505b8160e0015173ffffffffffffffffffffffffffffffffffffffff166342842e0e308461016001518561010001516040518463ffffffff1660e01b8152600401613016939291906141dc565b600060405180830381600087803b15801561303057600080fd5b505af1158015613044573d6000803e3d6000fd5b5050505081610160015173ffffffffffffffffffffffffffffffffffffffff16857f1e7abafb1a786c4e6394b5c494f50a97e3802ff2ce462eca4fe6a2dd4e1f92e8846101800151604051613099919061463d565b60405180910390a35050505050565b60006130c56001600084815260200190815260200160002061362c565b9050919050565b6130d68282613641565b6130fb81600160008581526020019081526020016000206132f190919063ffffffff16565b505050565b7f65d7a28e3265b37a6474929f336521b332c1681b933f6cb9f3376673440d862a81565b61312e82826136a7565b5050565b600061315a836000018373ffffffffffffffffffffffffffffffffffffffff1660001b613787565b905092915050565b60007f7965db0b000000000000000000000000000000000000000000000000000000007bffffffffffffffffffffffffffffffffffffffffffffffffffffffff1916827bffffffffffffffffffffffffffffffffffffffffffffffffffffffff191614806131d557506131d4826137f7565b5b9050919050565b600033905090565b600081600001549050919050565b6001816000016000828254019250508190555050565b613221613214836112bb565b61321c6131dc565b611a43565b613260576040517f08c379a00000000000000000000000000000000000000000000000000000000081526004016132579061439d565b60405180910390fd5b61326a82826136a7565b5050565b6132766131dc565b73ffffffffffffffffffffffffffffffffffffffff168173ffffffffffffffffffffffffffffffffffffffff16146132e3576040517f08c379a00000000000000000000000000000000000000000000000000000000081526004016132da906145fd565b60405180910390fd5b6132ed8282613861565b5050565b6000613319836000018373ffffffffffffffffffffffffffffffffffffffff1660001b613942565b905092915050565b613329611983565b613368576040517f08c379a000000000000000000000000000000000000000000000000000000000815260040161335f906143bd565b60405180910390fd5b6000600260006101000a81548160ff0219169083151502179055507f5db9ee0a495bf2e6ff9c91a7834c1ba4fdd244a5e8aa4e537bd38aeae4b073aa6133ac6131dc565b6040516133b991906141c1565b60405180910390a1565b6133cb611983565b1561340b576040517f08c379a00000000000000000000000000000000000000000000000000000000081526004016134029061449d565b60405180910390fd5b6001600260006101000a81548160ff0219169083151502179055507f62e78cea01bee320cd4e420270b5ea74000d11b0c9f74754ebdbfc544b05a25861344f6131dc565b60405161345c91906141c1565b60405180910390a1565b60006134758360000183613acc565b60001c905092915050565b613488611983565b156134c8576040517f08c379a00000000000000000000000000000000000000000000000000000000081526004016134bf9061449d565b60405180910390fd5b60008490503073ffffffffffffffffffffffffffffffffffffffff168473ffffffffffffffffffffffffffffffffffffffff161415613594578073ffffffffffffffffffffffffffffffffffffffff1663a9059cbb84846040518363ffffffff1660e01b815260040161353c929190614213565b602060405180830381600087803b15801561355657600080fd5b505af115801561356a573d6000803e3d6000fd5b505050506040513d601f19601f8201168201806040525081019061358e9190613c7e565b50613625565b8073ffffffffffffffffffffffffffffffffffffffff166323b872dd8585856040518463ffffffff1660e01b81526004016135d1939291906141dc565b602060405180830381600087803b1580156135eb57600080fd5b505af11580156135ff573d6000803e3d6000fd5b505050506040513d601f19601f820116820180604052508101906136239190613c7e565b505b5050505050565b600061363a82600001613b66565b9050919050565b61365a61364d836112bb565b6136556131dc565b611a43565b613699576040517f08c379a00000000000000000000000000000000000000000000000000000000081526004016136909061447d565b60405180910390fd5b6136a38282613861565b5050565b6136b18282611a43565b61378357600160008084815260200190815260200160002060000160008373ffffffffffffffffffffffffffffffffffffffff1673ffffffffffffffffffffffffffffffffffffffff16815260200190815260200160002060006101000a81548160ff0219169083151502179055506137286131dc565b73ffffffffffffffffffffffffffffffffffffffff168173ffffffffffffffffffffffffffffffffffffffff16837f2f8788117e7eff1d82e926ec794901d17c78024a50270940304540a733656f0d60405160405180910390a45b5050565b60006137938383613b77565b6137ec5782600001829080600181540180825580915050600190039060005260206000200160009091909190915055826000018054905083600101600084815260200190815260200160002081905550600190506137f1565b600090505b92915050565b60007f01ffc9a7000000000000000000000000000000000000000000000000000000007bffffffffffffffffffffffffffffffffffffffffffffffffffffffff1916827bffffffffffffffffffffffffffffffffffffffffffffffffffffffff1916149050919050565b61386b8282611a43565b1561393e57600080600084815260200190815260200160002060000160008373ffffffffffffffffffffffffffffffffffffffff1673ffffffffffffffffffffffffffffffffffffffff16815260200190815260200160002060006101000a81548160ff0219169083151502179055506138e36131dc565b73ffffffffffffffffffffffffffffffffffffffff168173ffffffffffffffffffffffffffffffffffffffff16837ff6391f5c32d9c69d2a47ea670b442974b53935d1edc7fd64eb21e047a839171b60405160405180910390a45b5050565b60008083600101600084815260200190815260200160002054905060008114613ac0576000600182613974919061474a565b905060006001866000018054905061398c919061474a565b905060008660000182815481106139cc577f4e487b7100000000000000000000000000000000000000000000000000000000600052603260045260246000fd5b9060005260206000200154905080876000018481548110613a16577f4e487b7100000000000000000000000000000000000000000000000000000000600052603260045260246000fd5b9060005260206000200181905550600183613a319190614669565b8760010160008381526020019081526020016000208190555086600001805480613a84577f4e487b7100000000000000000000000000000000000000000000000000000000600052603160045260246000fd5b60019003818190600052602060002001600090559055866001016000878152602001908152602001600020600090556001945050505050613ac6565b60009150505b92915050565b600081836000018054905011613b17576040517f08c379a0000000000000000000000000000000000000000000000000000000008152600401613b0e9061437d565b60405180910390fd5b826000018281548110613b53577f4e487b7100000000000000000000000000000000000000000000000000000000600052603260045260246000fd5b9060005260206000200154905092915050565b600081600001805490509050919050565b600080836001016000848152602001908152602001600020541415905092915050565b600081359050613ba981614f40565b92915050565b600081519050613bbe81614f40565b92915050565b600081519050613bd381614f57565b92915050565b600081359050613be881614f6e565b92915050565b600081359050613bfd81614f85565b92915050565b600081359050613c1281614f9c565b92915050565b600081359050613c2781614fac565b92915050565b600081519050613c3c81614fac565b92915050565b60008060408385031215613c5557600080fd5b6000613c6385828601613baf565b9250506020613c7485828601613c2d565b9150509250929050565b600060208284031215613c9057600080fd5b6000613c9e84828501613bc4565b91505092915050565b600060208284031215613cb957600080fd5b6000613cc784828501613bd9565b91505092915050565b60008060408385031215613ce357600080fd5b6000613cf185828601613bd9565b9250506020613d0285828601613b9a565b9150509250929050565b60008060408385031215613d1f57600080fd5b6000613d2d85828601613bd9565b9250506020613d3e85828601613c18565b9150509250929050565b600060208284031215613d5a57600080fd5b6000613d6884828501613bee565b91505092915050565b600080600080600080600060e0888a031215613d8c57600080fd5b6000613d9a8a828b01613c03565b9750506020613dab8a828b01613c18565b9650506040613dbc8a828b01613c18565b9550506060613dcd8a828b01613b9a565b9450506080613dde8a828b01613c18565b93505060a0613def8a828b01613b9a565b92505060c0613e008a828b01613c18565b91505092959891949750929550565b600060208284031215613e2157600080fd5b6000613e2f84828501613c18565b91505092915050565b60008060408385031215613e4b57600080fd5b6000613e5985828601613c18565b9250506020613e6a85828601613c18565b9150509250929050565b613e7d8161477e565b82525050565b613e8c81614790565b82525050565b613e9b8161479c565b82525050565b613eaa8161480f565b82525050565b6000613ebd602283614658565b9150613ec8826148ae565b604082019050919050565b6000613ee0602f83614658565b9150613eeb826148fd565b604082019050919050565b6000613f03601483614658565b9150613f0e8261494c565b602082019050919050565b6000613f26602f83614658565b9150613f3182614975565b604082019050919050565b6000613f49603383614658565b9150613f54826149c4565b604082019050919050565b6000613f6c603983614658565b9150613f7782614a13565b604082019050919050565b6000613f8f602e83614658565b9150613f9a82614a62565b604082019050919050565b6000613fb2603983614658565b9150613fbd82614ab1565b604082019050919050565b6000613fd5603083614658565b9150613fe082614b00565b604082019050919050565b6000613ff8601083614658565b915061400382614b4f565b602082019050919050565b600061401b603c83614658565b915061402682614b78565b604082019050919050565b600061403e603583614658565b915061404982614bc7565b604082019050919050565b6000614061603183614658565b915061406c82614c16565b604082019050919050565b6000614084603083614658565b915061408f82614c65565b604082019050919050565b60006140a7602683614658565b91506140b282614cb4565b604082019050919050565b60006140ca602c83614658565b91506140d582614d03565b604082019050919050565b60006140ed603a83614658565b91506140f882614d52565b604082019050919050565b6000614110603583614658565b915061411b82614da1565b604082019050919050565b6000614133603e83614658565b915061413e82614df0565b604082019050919050565b6000614156603a83614658565b915061416182614e3f565b604082019050919050565b6000614179602f83614658565b915061418482614e8e565b604082019050919050565b600061419c602c83614658565b91506141a782614edd565b604082019050919050565b6141bb81614805565b82525050565b60006020820190506141d66000830184613e74565b92915050565b60006060820190506141f16000830186613e74565b6141fe6020830185613e74565b61420b60408301846141b2565b949350505050565b60006040820190506142286000830185613e74565b61423560208301846141b2565b9392505050565b60006020820190506142516000830184613e83565b92915050565b600060208201905061426c6000830184613e92565b92915050565b600061014082019050614288600083018d613ea1565b614295602083018c613e83565b6142a2604083018b6141b2565b6142af606083018a6141b2565b6142bc6080830189613e74565b6142c960a0830188613e74565b6142d660c08301876141b2565b6142e360e08301866141b2565b6142f1610100830185613e74565b6142ff6101208301846141b2565b9b9a5050505050505050505050565b600060e082019050614323600083018a613ea1565b61433060208301896141b2565b61433d60408301886141b2565b61434a6060830187613e74565b61435760808301866141b2565b61436460a0830185613e74565b61437160c08301846141b2565b98975050505050505050565b6000602082019050818103600083015261439681613eb0565b9050919050565b600060208201905081810360008301526143b681613ed3565b9050919050565b600060208201905081810360008301526143d681613ef6565b9050919050565b600060208201905081810360008301526143f681613f19565b9050919050565b6000602082019050818103600083015261441681613f3c565b9050919050565b6000602082019050818103600083015261443681613f5f565b9050919050565b6000602082019050818103600083015261445681613f82565b9050919050565b6000602082019050818103600083015261447681613fa5565b9050919050565b6000602082019050818103600083015261449681613fc8565b9050919050565b600060208201905081810360008301526144b681613feb565b9050919050565b600060208201905081810360008301526144d68161400e565b9050919050565b600060208201905081810360008301526144f681614031565b9050919050565b6000602082019050818103600083015261451681614054565b9050919050565b6000602082019050818103600083015261453681614077565b9050919050565b600060208201905081810360008301526145568161409a565b9050919050565b60006020820190508181036000830152614576816140bd565b9050919050565b60006020820190508181036000830152614596816140e0565b9050919050565b600060208201905081810360008301526145b681614103565b9050919050565b600060208201905081810360008301526145d681614126565b9050919050565b600060208201905081810360008301526145f681614149565b9050919050565b600060208201905081810360008301526146168161416c565b9050919050565b600060208201905081810360008301526146368161418f565b9050919050565b600060208201905061465260008301846141b2565b92915050565b600082825260208201905092915050565b600061467482614805565b915061467f83614805565b9250827fffffffffffffffffffffffffffffffffffffffffffffffffffffffffffffffff038211156146b4576146b3614821565b5b828201905092915050565b60006146ca82614805565b91506146d583614805565b9250826146e5576146e4614850565b5b828204905092915050565b60006146fb82614805565b915061470683614805565b9250817fffffffffffffffffffffffffffffffffffffffffffffffffffffffffffffffff048311821515161561473f5761473e614821565b5b828202905092915050565b600061475582614805565b915061476083614805565b92508282101561477357614772614821565b5b828203905092915050565b6000614789826147e5565b9050919050565b60008115159050919050565b6000819050919050565b60007fffffffff0000000000000000000000000000000000000000000000000000000082169050919050565b60008190506147e082614f2c565b919050565b600073ffffffffffffffffffffffffffffffffffffffff82169050919050565b6000819050919050565b600061481a826147d2565b9050919050565b7f4e487b7100000000000000000000000000000000000000000000000000000000600052601160045260246000fd5b7f4e487b7100000000000000000000000000000000000000000000000000000000600052601260045260246000fd5b7f4e487b7100000000000000000000000000000000000000000000000000000000600052602160045260246000fd5b7f456e756d657261626c655365743a20696e646578206f7574206f6620626f756e60008201527f6473000000000000000000000000000000000000000000000000000000000000602082015250565b7f416363657373436f6e74726f6c3a2073656e646572206d75737420626520616e60008201527f2061646d696e20746f206772616e740000000000000000000000000000000000602082015250565b7f5061757361626c653a206e6f7420706175736564000000000000000000000000600082015250565b7f4c656d6f6e6164654d61726b6574706c6163653a206f72646572206d7573742060008201527f6265206f70656e20746f2066696c6c0000000000000000000000000000000000602082015250565b7f4c656d6f6e6164654d61726b6574706c6163653a206d7573742068617665207060008201527f617573657220726f6c6520746f20706175736500000000000000000000000000602082015250565b7f4c656d6f6e6164654d61726b6574706c6163653a206f72646572206d7573742060008201527f6265206f70656e20746f20626964202d20746f6f206c61746500000000000000602082015250565b7f4c656d6f6e6164654d61726b6574706c6163653a206f72646572206d7573742060008201527f6265206f70656e20746f20626964000000000000000000000000000000000000602082015250565b7f4c656d6f6e6164654d61726b6574706c6163653a206f72646572206d7573742060008201527f6265206f66206b696e642061756374696f6e20746f2062696400000000000000602082015250565b7f416363657373436f6e74726f6c3a2073656e646572206d75737420626520616e60008201527f2061646d696e20746f207265766f6b6500000000000000000000000000000000602082015250565b7f5061757361626c653a2070617573656400000000000000000000000000000000600082015250565b7f4c656d6f6e6164654d61726b6574706c6163653a206d7573742062652074686560008201527f206d616b657220746f2066696c6c2061756374696f6e206f7264657200000000602082015250565b7f4c656d6f6e6164654d61726b6574706c6163653a206f72646572206d7573742060008201527f68617665206e6f2062696420746f2063616e63656c0000000000000000000000602082015250565b7f4c656d6f6e6164654d61726b6574706c6163653a206f72646572206d7573742060008201527f6265206f70656e20746f2063616e63656c000000000000000000000000000000602082015250565b7f4c656d6f6e6164654d61726b6574706c6163653a206d7573742062652074686560008201527f206d616b657220746f2063616e63656c00000000000000000000000000000000602082015250565b7f4c656d6f6e6164654d61726b6574706c6163653a206f72646572206e6f6e657860008201527f697374656e740000000000000000000000000000000000000000000000000000602082015250565b7f4c656d6f6e6164654d61726b6574706c6163653a206d757374206d617463682060008201527f707269636520746f206269640000000000000000000000000000000000000000602082015250565b7f4c656d6f6e6164654d61726b6574706c6163653a206f72646572206d7573742060008201527f6265206f70656e20746f20626964202d20746f6f206561726c79000000000000602082015250565b7f4c656d6f6e6164654d61726b6574706c6163653a206d7573742068617665207060008201527f617573657220726f6c6520746f20756e70617573650000000000000000000000602082015250565b7f4c656d6f6e6164654d61726b6574706c6163653a206f72646572206d7573742060008201527f686176652062696420746f2066696c6c2061756374696f6e206f726465720000602082015250565b7f4c656d6f6e6164654d61726b6574706c6163653a206d757374206d617463682060008201527f707269636520746f2066696c6c20646972656374206f72646572000000000000602082015250565b7f416363657373436f6e74726f6c3a2063616e206f6e6c792072656e6f756e636560008201527f20726f6c657320666f722073656c660000000000000000000000000000000000602082015250565b7f4c656d6f6e6164654d61726b6574706c6163653a206d7573742073757270617360008201527f732062696420746f206269640000000000000000000000000000000000000000602082015250565b60028110614f3d57614f3c61487f565b5b50565b614f498161477e565b8114614f5457600080fd5b50565b614f6081614790565b8114614f6b57600080fd5b50565b614f778161479c565b8114614f8257600080fd5b50565b614f8e816147a6565b8114614f9957600080fd5b50565b60028110614fa957600080fd5b50565b614fb581614805565b8114614fc057600080fd5b5056fea264697066735822122091ffe976840423c3cb7d618e9b6470a0173d20b96fac3a1dfeb139b2cb9d504f64736f6c63430008030033",
  "immutableReferences": {},
  "source": "// SPDX-License-Identifier: MIT\n\npragma solidity ^0.8.0;\n\nimport \"@openzeppelin/contracts/access/AccessControlEnumerable.sol\";\nimport \"@openzeppelin/contracts/security/Pausable.sol\";\nimport \"@openzeppelin/contracts/token/ERC20/IERC20.sol\";\nimport \"@openzeppelin/contracts/token/ERC721/IERC721.sol\";\nimport \"@openzeppelin/contracts/utils/Counters.sol\";\nimport \"./IERC721Royalty.sol\";\n\ncontract LemonadeMarketplace is AccessControlEnumerable, Pausable {\n    using Counters for Counters.Counter;\n\n    bytes32 public constant PAUSER_ROLE = keccak256(\"PAUSER_ROLE\");\n\n    Counters.Counter private _orderIdTracker;\n\n    enum OrderKind { Direct, Auction }\n\n    event OrderCreated(uint256 indexed orderId, OrderKind kind, uint256 openFrom, uint256 openTo, address indexed maker, address currency, uint256 price, address tokenContract, uint256 tokenId);\n    event OrderBid(uint256 indexed orderId, address indexed bidder, uint256 bidAmount);\n    event OrderFilled(uint256 indexed orderId, address indexed taker, uint256 paidAmount);\n    event OrderCancelled(uint256 indexed orderId);\n\n    struct Order {\n        OrderKind kind;\n        bool open;\n        uint256 openFrom;\n        uint256 openTo;\n        address maker;\n        address currency;\n        uint256 price;\n        address tokenContract;\n        uint256 tokenId;\n        address bidder;\n        uint256 bidAmount;\n        address taker;\n        uint256 paidAmount;\n    }\n    mapping (uint256 => Order) private _orders;\n\n    constructor() {\n        _setupRole(DEFAULT_ADMIN_ROLE, _msgSender());\n        _setupRole(PAUSER_ROLE, _msgSender());\n    }\n\n    function order(uint256 orderId)\n        public\n        virtual\n        view\n        whenExists(orderId)\n        returns (OrderKind, bool, uint, uint, address, address, uint256, uint256, address, uint256)\n    {\n        Order memory _order = _orders[orderId];\n        return (_order.kind, _order.open, _order.openFrom, _order.openTo, _order.maker, _order.currency, _order.price, _order.bidAmount, _order.taker, _order.paidAmount);\n    }\n\n    function token(uint256 orderId)\n        public\n        virtual\n        view\n        whenExists(orderId)\n        returns (address, uint256)\n    {\n        Order memory _order = _orders[orderId];\n        return (_order.tokenContract, _order.tokenId);\n    }\n\n    function createOrder(OrderKind kind, uint openFrom, uint openTo, address currency, uint256 price, address tokenContract, uint256 tokenId)\n        public\n        virtual\n        whenNotPaused\n        returns (uint256)\n    {\n        IERC721(tokenContract).transferFrom(_msgSender(), address(this), tokenId);\n\n        uint256 orderId = _orderIdTracker.current();\n\n        _orders[orderId] = Order({\n            kind: kind,\n            open: true,\n            openFrom: openFrom,\n            openTo: openTo,\n            maker: _msgSender(),\n            currency: currency,\n            price: price,\n            tokenContract: tokenContract,\n            tokenId: tokenId,\n            bidder: address(0),\n            bidAmount: 0,\n            taker: address(0),\n            paidAmount: 0\n        });\n\n        _orderIdTracker.increment();\n\n        Order memory _order = _orders[orderId];\n        emit OrderCreated(orderId, _order.kind, _order.openFrom, _order.openTo, _order.maker, _order.currency, _order.price, _order.tokenContract, _order.tokenId);\n        return orderId;\n    }\n\n    function cancelOrder(uint256 orderId)\n        public\n        virtual\n        whenNotPaused\n        whenExists(orderId)\n    {\n        Order memory _order = _orders[orderId];\n        require(_order.maker == _msgSender() || hasRole(DEFAULT_ADMIN_ROLE, _msgSender()), \"LemonadeMarketplace: must be the maker to cancel\");\n        require(_order.open, \"LemonadeMarketplace: order must be open to cancel\");\n        require(_order.bidder == address(0), \"LemonadeMarketplace: order must have no bid to cancel\");\n\n        IERC721(_order.tokenContract).safeTransferFrom(address(this), _order.maker, _order.tokenId);\n\n        _orders[orderId].open = false;\n        emit OrderCancelled(orderId);\n    }\n\n    function bidOrder(uint256 orderId, uint256 amount)\n        public\n        virtual\n        whenNotPaused\n        whenExists(orderId)\n    {\n        Order memory _order = _orders[orderId];\n        require(_order.kind == OrderKind.Auction, \"LemonadeMarketplace: order must be of kind auction to bid\");\n        require(_order.open, \"LemonadeMarketplace: order must be open to bid\");\n        require(_order.openFrom == 0 || block.timestamp >= _order.openFrom, \"LemonadeMarketplace: order must be open to bid - too early\");\n        require(_order.openTo == 0 || block.timestamp < _order.openTo, \"LemonadeMarketplace: order must be open to bid - too late\");\n        require(_order.price <= amount, \"LemonadeMarketplace: must match price to bid\");\n\n        if (_order.bidder != address(0)) {\n            require(_order.bidAmount < amount, \"LemonadeMarketplace: must surpass bid to bid\");\n\n            transferERC20(_order.currency, address(this), _order.bidder, _order.bidAmount);\n        }\n\n        _orders[orderId].bidder = _msgSender();\n        _orders[orderId].bidAmount = amount;\n        _order = _orders[orderId];\n\n        transferERC20(_order.currency, _order.bidder, address(this), _order.bidAmount);\n\n        emit OrderBid(orderId, _order.bidder, _order.bidAmount);\n    }\n\n    function fillOrder(uint256 orderId, uint256 amount)\n        public\n        virtual\n        whenNotPaused\n        whenExists(orderId)\n    {\n        Order memory _order = _orders[orderId];\n        require(_order.open, \"LemonadeMarketplace: order must be open to fill\");\n\n        _orders[orderId].open = false;\n        address _spender;\n\n        if (_order.kind == OrderKind.Direct) {\n            require(_order.price <= amount, \"LemonadeMarketplace: must match price to fill direct order\");\n\n            _orders[orderId].taker = _msgSender();\n            _orders[orderId].paidAmount = amount;\n            _spender = _msgSender();\n        } else if (_order.kind == OrderKind.Auction) {\n            require(_order.maker == _msgSender() || hasRole(DEFAULT_ADMIN_ROLE, _msgSender()), \"LemonadeMarketplace: must be the maker to fill auction order\");\n            require(_order.bidder != address(0), \"LemonadeMarketplace: order must have bid to fill auction order\");\n\n            _orders[orderId].taker = _order.bidder;\n            _orders[orderId].paidAmount = _order.bidAmount;\n            _spender = address(this);\n        }\n\n        _order = _orders[orderId];\n\n        if (_order.paidAmount > 0) {\n            uint256 transferAmount = _order.paidAmount;\n\n            try IERC721Royalty(_order.tokenContract).royalty(_order.tokenId) returns (address maker, uint256 fraction) {\n                if (_order.maker != maker) {\n                    uint256 royalty = transferAmount * fraction / 10 ** 18;\n\n                    transferERC20(_order.currency, _spender, maker, royalty);\n                    transferAmount -= royalty;\n                }\n            } catch { }\n\n            if (transferAmount > 0) {\n                transferERC20(_order.currency, _spender, _order.maker, transferAmount);\n            }\n        }\n\n        IERC721(_order.tokenContract).safeTransferFrom(address(this), _order.taker, _order.tokenId);\n\n        emit OrderFilled(orderId, _order.taker, _order.paidAmount);\n    }\n\n    function transferERC20(address _currency, address spender, address recipient, uint256 amount)\n        private\n        whenNotPaused\n    {\n        IERC20 currency = IERC20(_currency);\n\n        if (spender == address(this)) {\n            currency.transfer(recipient, amount);\n        } else {\n            currency.transferFrom(spender, recipient, amount); // requires allowance\n        }\n    }\n\n    modifier whenExists(uint256 orderId) {\n        require(_orders[orderId].maker != address(0), \"LemonadeMarketplace: order nonexistent\");\n        _;\n    }\n\n    function pause()\n        public\n        virtual\n    {\n        require(hasRole(PAUSER_ROLE, _msgSender()), \"LemonadeMarketplace: must have pauser role to pause\");\n        _pause();\n    }\n\n    function unpause()\n        public\n        virtual\n    {\n        require(hasRole(PAUSER_ROLE, _msgSender()), \"LemonadeMarketplace: must have pauser role to unpause\");\n        _unpause();\n    }\n}\n",
  "sourcePath": "/home/chris/contract/contracts/LemonadeMarketplace.sol",
  "compiler": {
    "name": "solc",
    "version": "0.8.3+commit.8d00100c.Emscripten.clang"
  },
  "schemaVersion": "3.3.4",
  "updatedAt": "2021-08-13T07:47:10.260Z",
  "devdoc": {
    "kind": "dev",
    "methods": {
      "getRoleAdmin(bytes32)": {
        "details": "Returns the admin role that controls `role`. See {grantRole} and {revokeRole}. To change a role's admin, use {_setRoleAdmin}."
      },
      "getRoleMember(bytes32,uint256)": {
        "details": "Returns one of the accounts that have `role`. `index` must be a value between 0 and {getRoleMemberCount}, non-inclusive. Role bearers are not sorted in any particular way, and their ordering may change at any point. WARNING: When using {getRoleMember} and {getRoleMemberCount}, make sure you perform all queries on the same block. See the following https://forum.openzeppelin.com/t/iterating-over-elements-on-enumerableset-in-openzeppelin-contracts/2296[forum post] for more information."
      },
      "getRoleMemberCount(bytes32)": {
        "details": "Returns the number of accounts that have `role`. Can be used together with {getRoleMember} to enumerate all bearers of a role."
      },
      "grantRole(bytes32,address)": {
        "details": "Overload {grantRole} to track enumerable memberships"
      },
      "hasRole(bytes32,address)": {
        "details": "Returns `true` if `account` has been granted `role`."
      },
      "paused()": {
        "details": "Returns true if the contract is paused, and false otherwise."
      },
      "renounceRole(bytes32,address)": {
        "details": "Overload {renounceRole} to track enumerable memberships"
      },
      "revokeRole(bytes32,address)": {
        "details": "Overload {revokeRole} to track enumerable memberships"
      },
      "supportsInterface(bytes4)": {
        "details": "See {IERC165-supportsInterface}."
      }
    },
    "version": 1
  },
  "userdoc": {
    "kind": "user",
    "methods": {},
    "version": 1
  }
}