{
  "contractName": "LemonadeMarketplace",
  "abi": [
    {
      "inputs": [],
      "stateMutability": "nonpayable",
      "type": "constructor"
    },
    {
      "anonymous": false,
      "inputs": [
        {
          "indexed": true,
          "internalType": "uint256",
          "name": "offerId",
          "type": "uint256"
        },
        {
          "indexed": true,
          "internalType": "address",
          "name": "buyer",
          "type": "address"
        }
      ],
      "name": "OfferAccepted",
      "type": "event"
    },
    {
      "anonymous": false,
      "inputs": [
        {
          "indexed": true,
          "internalType": "uint256",
          "name": "offerId",
          "type": "uint256"
        },
        {
          "indexed": true,
          "internalType": "address",
          "name": "seller",
          "type": "address"
        },
        {
          "indexed": false,
          "internalType": "address",
          "name": "currency",
          "type": "address"
        },
        {
          "indexed": false,
          "internalType": "uint256",
          "name": "price",
          "type": "uint256"
        },
        {
          "indexed": false,
          "internalType": "address",
          "name": "tokenContract",
          "type": "address"
        },
        {
          "indexed": false,
          "internalType": "uint256",
          "name": "tokenId",
          "type": "uint256"
        }
      ],
      "name": "OfferCreated",
      "type": "event"
    },
    {
      "anonymous": false,
      "inputs": [
        {
          "indexed": true,
          "internalType": "uint256",
          "name": "offerId",
          "type": "uint256"
        }
      ],
      "name": "OfferWithdrawn",
      "type": "event"
    },
    {
      "anonymous": false,
      "inputs": [
        {
          "indexed": false,
          "internalType": "address",
          "name": "account",
          "type": "address"
        }
      ],
      "name": "Paused",
      "type": "event"
    },
    {
      "anonymous": false,
      "inputs": [
        {
          "indexed": true,
          "internalType": "bytes32",
          "name": "role",
          "type": "bytes32"
        },
        {
          "indexed": true,
          "internalType": "bytes32",
          "name": "previousAdminRole",
          "type": "bytes32"
        },
        {
          "indexed": true,
          "internalType": "bytes32",
          "name": "newAdminRole",
          "type": "bytes32"
        }
      ],
      "name": "RoleAdminChanged",
      "type": "event"
    },
    {
      "anonymous": false,
      "inputs": [
        {
          "indexed": true,
          "internalType": "bytes32",
          "name": "role",
          "type": "bytes32"
        },
        {
          "indexed": true,
          "internalType": "address",
          "name": "account",
          "type": "address"
        },
        {
          "indexed": true,
          "internalType": "address",
          "name": "sender",
          "type": "address"
        }
      ],
      "name": "RoleGranted",
      "type": "event"
    },
    {
      "anonymous": false,
      "inputs": [
        {
          "indexed": true,
          "internalType": "bytes32",
          "name": "role",
          "type": "bytes32"
        },
        {
          "indexed": true,
          "internalType": "address",
          "name": "account",
          "type": "address"
        },
        {
          "indexed": true,
          "internalType": "address",
          "name": "sender",
          "type": "address"
        }
      ],
      "name": "RoleRevoked",
      "type": "event"
    },
    {
      "anonymous": false,
      "inputs": [
        {
          "indexed": false,
          "internalType": "address",
          "name": "account",
          "type": "address"
        }
      ],
      "name": "Unpaused",
      "type": "event"
    },
    {
      "inputs": [],
      "name": "DEFAULT_ADMIN_ROLE",
      "outputs": [
        {
          "internalType": "bytes32",
          "name": "",
          "type": "bytes32"
        }
      ],
      "stateMutability": "view",
      "type": "function",
      "constant": true
    },
    {
      "inputs": [],
      "name": "PAUSER_ROLE",
      "outputs": [
        {
          "internalType": "bytes32",
          "name": "",
          "type": "bytes32"
        }
      ],
      "stateMutability": "view",
      "type": "function",
      "constant": true
    },
    {
      "inputs": [
        {
          "internalType": "bytes32",
          "name": "role",
          "type": "bytes32"
        }
      ],
      "name": "getRoleAdmin",
      "outputs": [
        {
          "internalType": "bytes32",
          "name": "",
          "type": "bytes32"
        }
      ],
      "stateMutability": "view",
      "type": "function",
      "constant": true
    },
    {
      "inputs": [
        {
          "internalType": "bytes32",
          "name": "role",
          "type": "bytes32"
        },
        {
          "internalType": "uint256",
          "name": "index",
          "type": "uint256"
        }
      ],
      "name": "getRoleMember",
      "outputs": [
        {
          "internalType": "address",
          "name": "",
          "type": "address"
        }
      ],
      "stateMutability": "view",
      "type": "function",
      "constant": true
    },
    {
      "inputs": [
        {
          "internalType": "bytes32",
          "name": "role",
          "type": "bytes32"
        }
      ],
      "name": "getRoleMemberCount",
      "outputs": [
        {
          "internalType": "uint256",
          "name": "",
          "type": "uint256"
        }
      ],
      "stateMutability": "view",
      "type": "function",
      "constant": true
    },
    {
      "inputs": [
        {
          "internalType": "bytes32",
          "name": "role",
          "type": "bytes32"
        },
        {
          "internalType": "address",
          "name": "account",
          "type": "address"
        }
      ],
      "name": "grantRole",
      "outputs": [],
      "stateMutability": "nonpayable",
      "type": "function"
    },
    {
      "inputs": [
        {
          "internalType": "bytes32",
          "name": "role",
          "type": "bytes32"
        },
        {
          "internalType": "address",
          "name": "account",
          "type": "address"
        }
      ],
      "name": "hasRole",
      "outputs": [
        {
          "internalType": "bool",
          "name": "",
          "type": "bool"
        }
      ],
      "stateMutability": "view",
      "type": "function",
      "constant": true
    },
    {
      "inputs": [],
      "name": "paused",
      "outputs": [
        {
          "internalType": "bool",
          "name": "",
          "type": "bool"
        }
      ],
      "stateMutability": "view",
      "type": "function",
      "constant": true
    },
    {
      "inputs": [
        {
          "internalType": "bytes32",
          "name": "role",
          "type": "bytes32"
        },
        {
          "internalType": "address",
          "name": "account",
          "type": "address"
        }
      ],
      "name": "renounceRole",
      "outputs": [],
      "stateMutability": "nonpayable",
      "type": "function"
    },
    {
      "inputs": [
        {
          "internalType": "bytes32",
          "name": "role",
          "type": "bytes32"
        },
        {
          "internalType": "address",
          "name": "account",
          "type": "address"
        }
      ],
      "name": "revokeRole",
      "outputs": [],
      "stateMutability": "nonpayable",
      "type": "function"
    },
    {
      "inputs": [
        {
          "internalType": "bytes4",
          "name": "interfaceId",
          "type": "bytes4"
        }
      ],
      "name": "supportsInterface",
      "outputs": [
        {
          "internalType": "bool",
          "name": "",
          "type": "bool"
        }
      ],
      "stateMutability": "view",
      "type": "function",
      "constant": true
    },
    {
      "inputs": [
        {
          "internalType": "uint256",
          "name": "offerId",
          "type": "uint256"
        }
      ],
      "name": "getOffer",
      "outputs": [
        {
          "internalType": "bool",
          "name": "",
          "type": "bool"
        },
        {
          "internalType": "address",
          "name": "",
          "type": "address"
        },
        {
          "internalType": "address",
          "name": "",
          "type": "address"
        },
        {
          "internalType": "uint256",
          "name": "",
          "type": "uint256"
        },
        {
          "internalType": "address",
          "name": "",
          "type": "address"
        },
        {
          "internalType": "uint256",
          "name": "",
          "type": "uint256"
        },
        {
          "internalType": "address",
          "name": "",
          "type": "address"
        }
      ],
      "stateMutability": "view",
      "type": "function",
      "constant": true
    },
    {
      "inputs": [
        {
          "internalType": "address",
          "name": "currency",
          "type": "address"
        },
        {
          "internalType": "uint256",
          "name": "price",
          "type": "uint256"
        },
        {
          "internalType": "address",
          "name": "tokenContract",
          "type": "address"
        },
        {
          "internalType": "uint256",
          "name": "tokenId",
          "type": "uint256"
        }
      ],
      "name": "createOffer",
      "outputs": [],
      "stateMutability": "nonpayable",
      "type": "function"
    },
    {
      "inputs": [
        {
          "internalType": "uint256",
          "name": "offerId",
          "type": "uint256"
        }
      ],
      "name": "withdrawOffer",
      "outputs": [],
      "stateMutability": "nonpayable",
      "type": "function"
    },
    {
      "inputs": [
        {
          "internalType": "uint256",
          "name": "offerId",
          "type": "uint256"
        }
      ],
      "name": "acceptOffer",
      "outputs": [],
      "stateMutability": "nonpayable",
      "type": "function"
    },
    {
      "inputs": [],
      "name": "pause",
      "outputs": [],
      "stateMutability": "nonpayable",
      "type": "function"
    },
    {
      "inputs": [],
      "name": "unpause",
      "outputs": [],
      "stateMutability": "nonpayable",
      "type": "function"
    }
  ],
  "bytecode": "0x60806040523480156200001157600080fd5b506000600260006101000a81548160ff021916908315150217905550620000516000801b620000456200009860201b60201c565b620000a060201b60201c565b620000927f65d7a28e3265b37a6474929f336521b332c1681b933f6cb9f3376673440d862a620000866200009860201b60201c565b620000a060201b60201c565b6200032e565b600033905090565b620000b78282620000e860201b6200136d1760201c565b620000e38160016000858152602001908152602001600020620000fe60201b6200137b1790919060201c565b505050565b620000fa82826200013660201b60201c565b5050565b60006200012e836000018373ffffffffffffffffffffffffffffffffffffffff1660001b6200022760201b60201c565b905092915050565b620001488282620002a160201b60201c565b6200022357600160008084815260200190815260200160002060000160008373ffffffffffffffffffffffffffffffffffffffff1673ffffffffffffffffffffffffffffffffffffffff16815260200190815260200160002060006101000a81548160ff021916908315150217905550620001c86200009860201b60201c565b73ffffffffffffffffffffffffffffffffffffffff168173ffffffffffffffffffffffffffffffffffffffff16837f2f8788117e7eff1d82e926ec794901d17c78024a50270940304540a733656f0d60405160405180910390a45b5050565b60006200023b83836200030b60201b60201c565b620002965782600001829080600181540180825580915050600190039060005260206000200160009091909190915055826000018054905083600101600084815260200190815260200160002081905550600190506200029b565b600090505b92915050565b600080600084815260200190815260200160002060000160008373ffffffffffffffffffffffffffffffffffffffff1673ffffffffffffffffffffffffffffffffffffffff16815260200190815260200160002060009054906101000a900460ff16905092915050565b600080836001016000848152602001908152602001600020541415905092915050565b61279d806200033e6000396000f3fe608060405234801561001057600080fd5b506004361061010b5760003560e01c80638610f045116100a2578063c815729d11610071578063c815729d146102aa578063ca15c873146102c6578063d547741f146102f6578063e63ab1e914610312578063f2491528146103305761010b565b80638610f045146102105780639010d07c1461022c57806391d148541461025c578063a217fddf1461028c5761010b565b80633f4ba83a116100de5780633f4ba83a146101a85780634579268a146101b25780635c975abb146101e85780638456cb59146102065761010b565b806301ffc9a714610110578063248a9ca3146101405780632f2ff15d1461017057806336568abe1461018c575b600080fd5b61012a60048036038101906101259190611dcd565b61034c565b6040516101379190612073565b60405180910390f35b61015a60048036038101906101559190611d2c565b6103c6565b60405161016791906120fd565b60405180910390f35b61018a60048036038101906101859190611d55565b6103e5565b005b6101a660048036038101906101a19190611d55565b610419565b005b6101b061044d565b005b6101cc60048036038101906101c79190611df6565b6104c7565b6040516101df979695949392919061208e565b60405180910390f35b6101f06106b7565b6040516101fd9190612073565b60405180910390f35b61020e6106ce565b005b61022a60048036038101906102259190611df6565b610748565b005b61024660048036038101906102419190611d91565b610aec565b6040516102539190611fdc565b60405180910390f35b61027660048036038101906102719190611d55565b610b1b565b6040516102839190612073565b60405180910390f35b610294610b85565b6040516102a191906120fd565b60405180910390f35b6102c460048036038101906102bf9190611df6565b610b8c565b005b6102e060048036038101906102db9190611d2c565b610fbc565b6040516102ed9190612278565b60405180910390f35b610310600480360381019061030b9190611d55565b610fe0565b005b61031a611014565b60405161032791906120fd565b60405180910390f35b61034a60048036038101906103459190611ca0565b611038565b005b60007f5a05180f000000000000000000000000000000000000000000000000000000007bffffffffffffffffffffffffffffffffffffffffffffffffffffffff1916827bffffffffffffffffffffffffffffffffffffffffffffffffffffffff191614806103bf57506103be826113ab565b5b9050919050565b6000806000838152602001908152602001600020600101549050919050565b6103ef8282611425565b610414816001600085815260200190815260200160002061137b90919063ffffffff16565b505050565b610423828261148b565b610448816001600085815260200190815260200160002061150e90919063ffffffff16565b505050565b61047e7f65d7a28e3265b37a6474929f336521b332c1681b933f6cb9f3376673440d862a61047961153e565b610b1b565b6104bd576040517f08c379a00000000000000000000000000000000000000000000000000000000081526004016104b490612238565b60405180910390fd5b6104c5611546565b565b600080600080600080600080600460008a81526020019081526020016000206040518060e00160405290816000820160009054906101000a900460ff161515151581526020016000820160019054906101000a900473ffffffffffffffffffffffffffffffffffffffff1673ffffffffffffffffffffffffffffffffffffffff1673ffffffffffffffffffffffffffffffffffffffff1681526020016001820160009054906101000a900473ffffffffffffffffffffffffffffffffffffffff1673ffffffffffffffffffffffffffffffffffffffff1673ffffffffffffffffffffffffffffffffffffffff168152602001600282015481526020016003820160009054906101000a900473ffffffffffffffffffffffffffffffffffffffff1673ffffffffffffffffffffffffffffffffffffffff1673ffffffffffffffffffffffffffffffffffffffff168152602001600482015481526020016005820160009054906101000a900473ffffffffffffffffffffffffffffffffffffffff1673ffffffffffffffffffffffffffffffffffffffff1673ffffffffffffffffffffffffffffffffffffffff16815250509050806000015181602001518260400151836060015184608001518560a001518660c00151975097509750975097509750975050919395979092949650565b6000600260009054906101000a900460ff16905090565b6106ff7f65d7a28e3265b37a6474929f336521b332c1681b933f6cb9f3376673440d862a6106fa61153e565b610b1b565b61073e576040517f08c379a000000000000000000000000000000000000000000000000000000000815260040161073590612178565b60405180910390fd5b6107466115e8565b565b6107506106b7565b15610790576040517f08c379a0000000000000000000000000000000000000000000000000000000008152600401610787906121b8565b60405180910390fd5b6000600460008381526020019081526020016000206040518060e00160405290816000820160009054906101000a900460ff161515151581526020016000820160019054906101000a900473ffffffffffffffffffffffffffffffffffffffff1673ffffffffffffffffffffffffffffffffffffffff1673ffffffffffffffffffffffffffffffffffffffff1681526020016001820160009054906101000a900473ffffffffffffffffffffffffffffffffffffffff1673ffffffffffffffffffffffffffffffffffffffff1673ffffffffffffffffffffffffffffffffffffffff168152602001600282015481526020016003820160009054906101000a900473ffffffffffffffffffffffffffffffffffffffff1673ffffffffffffffffffffffffffffffffffffffff1673ffffffffffffffffffffffffffffffffffffffff168152602001600482015481526020016005820160009054906101000a900473ffffffffffffffffffffffffffffffffffffffff1673ffffffffffffffffffffffffffffffffffffffff1673ffffffffffffffffffffffffffffffffffffffff1681525050905061094161153e565b73ffffffffffffffffffffffffffffffffffffffff16816020015173ffffffffffffffffffffffffffffffffffffffff16148061098e575061098d6000801b61098861153e565b610b1b565b5b6109cd576040517f08c379a00000000000000000000000000000000000000000000000000000000081526004016109c4906121f8565b60405180910390fd5b8060000151610a11576040517f08c379a0000000000000000000000000000000000000000000000000000000008152600401610a08906121d8565b60405180910390fd5b806080015173ffffffffffffffffffffffffffffffffffffffff166323b872dd3083602001518460a001516040518463ffffffff1660e01b8152600401610a5a93929190611ff7565b600060405180830381600087803b158015610a7457600080fd5b505af1158015610a88573d6000803e3d6000fd5b5050505060006004600084815260200190815260200160002060000160006101000a81548160ff021916908315150217905550817facbc44b7f46dc350c99fc0d9e5f61ed5c588cb4cdc6b69ea0deb0c5b28e5efc460405160405180910390a25050565b6000610b13826001600086815260200190815260200160002061168b90919063ffffffff16565b905092915050565b600080600084815260200190815260200160002060000160008373ffffffffffffffffffffffffffffffffffffffff1673ffffffffffffffffffffffffffffffffffffffff16815260200190815260200160002060009054906101000a900460ff16905092915050565b6000801b81565b610b946106b7565b15610bd4576040517f08c379a0000000000000000000000000000000000000000000000000000000008152600401610bcb906121b8565b60405180910390fd5b6000600460008381526020019081526020016000206040518060e00160405290816000820160009054906101000a900460ff161515151581526020016000820160019054906101000a900473ffffffffffffffffffffffffffffffffffffffff1673ffffffffffffffffffffffffffffffffffffffff1673ffffffffffffffffffffffffffffffffffffffff1681526020016001820160009054906101000a900473ffffffffffffffffffffffffffffffffffffffff1673ffffffffffffffffffffffffffffffffffffffff1673ffffffffffffffffffffffffffffffffffffffff168152602001600282015481526020016003820160009054906101000a900473ffffffffffffffffffffffffffffffffffffffff1673ffffffffffffffffffffffffffffffffffffffff1673ffffffffffffffffffffffffffffffffffffffff168152602001600482015481526020016005820160009054906101000a900473ffffffffffffffffffffffffffffffffffffffff1673ffffffffffffffffffffffffffffffffffffffff1673ffffffffffffffffffffffffffffffffffffffff168152505090508060000151610dc1576040517f08c379a0000000000000000000000000000000000000000000000000000000008152600401610db890612218565b60405180910390fd5b806040015173ffffffffffffffffffffffffffffffffffffffff166323b872dd610de961153e565b836020015184606001516040518463ffffffff1660e01b8152600401610e1193929190611ff7565b602060405180830381600087803b158015610e2b57600080fd5b505af1158015610e3f573d6000803e3d6000fd5b505050506040513d601f19601f82011682018060405250810190610e639190611d03565b50806080015173ffffffffffffffffffffffffffffffffffffffff166323b872dd30610e8d61153e565b8460a001516040518463ffffffff1660e01b8152600401610eb093929190611ff7565b600060405180830381600087803b158015610eca57600080fd5b505af1158015610ede573d6000803e3d6000fd5b5050505060006004600084815260200190815260200160002060000160006101000a81548160ff021916908315150217905550610f1961153e565b6004600084815260200190815260200160002060050160006101000a81548173ffffffffffffffffffffffffffffffffffffffff021916908373ffffffffffffffffffffffffffffffffffffffff160217905550610f7561153e565b73ffffffffffffffffffffffffffffffffffffffff16827fa7a40af5a1d0c10a3eb94af90cb008170915e8a71a6aaff052794cd762c72fc060405160405180910390a35050565b6000610fd9600160008481526020019081526020016000206116a5565b9050919050565b610fea82826116ba565b61100f816001600085815260200190815260200160002061150e90919063ffffffff16565b505050565b7f65d7a28e3265b37a6474929f336521b332c1681b933f6cb9f3376673440d862a81565b6110406106b7565b15611080576040517f08c379a0000000000000000000000000000000000000000000000000000000008152600401611077906121b8565b60405180910390fd5b8173ffffffffffffffffffffffffffffffffffffffff166323b872dd6110a461153e565b30846040518463ffffffff1660e01b81526004016110c493929190611ff7565b600060405180830381600087803b1580156110de57600080fd5b505af11580156110f2573d6000803e3d6000fd5b5050505060006111026003611720565b90506040518060e0016040528060011515815260200161112061153e565b73ffffffffffffffffffffffffffffffffffffffff1681526020018673ffffffffffffffffffffffffffffffffffffffff1681526020018581526020018473ffffffffffffffffffffffffffffffffffffffff168152602001838152602001600073ffffffffffffffffffffffffffffffffffffffff168152506004600083815260200190815260200160002060008201518160000160006101000a81548160ff02191690831515021790555060208201518160000160016101000a81548173ffffffffffffffffffffffffffffffffffffffff021916908373ffffffffffffffffffffffffffffffffffffffff16021790555060408201518160010160006101000a81548173ffffffffffffffffffffffffffffffffffffffff021916908373ffffffffffffffffffffffffffffffffffffffff1602179055506060820151816002015560808201518160030160006101000a81548173ffffffffffffffffffffffffffffffffffffffff021916908373ffffffffffffffffffffffffffffffffffffffff16021790555060a0820151816004015560c08201518160050160006101000a81548173ffffffffffffffffffffffffffffffffffffffff021916908373ffffffffffffffffffffffffffffffffffffffff16021790555090505061130861153e565b73ffffffffffffffffffffffffffffffffffffffff16817f95d9da08dabee1c5c31dc55019599a9831d84490d3bdbe8fb0178ae526ce2b4a87878787604051611354949392919061202e565b60405180910390a3611366600361172e565b5050505050565b6113778282611744565b5050565b60006113a3836000018373ffffffffffffffffffffffffffffffffffffffff1660001b611824565b905092915050565b60007f7965db0b000000000000000000000000000000000000000000000000000000007bffffffffffffffffffffffffffffffffffffffffffffffffffffffff1916827bffffffffffffffffffffffffffffffffffffffffffffffffffffffff1916148061141e575061141d82611894565b5b9050919050565b61143e611431836103c6565b61143961153e565b610b1b565b61147d576040517f08c379a000000000000000000000000000000000000000000000000000000000815260040161147490612138565b60405180910390fd5b6114878282611744565b5050565b61149361153e565b73ffffffffffffffffffffffffffffffffffffffff168173ffffffffffffffffffffffffffffffffffffffff1614611500576040517f08c379a00000000000000000000000000000000000000000000000000000000081526004016114f790612258565b60405180910390fd5b61150a82826118fe565b5050565b6000611536836000018373ffffffffffffffffffffffffffffffffffffffff1660001b6119df565b905092915050565b600033905090565b61154e6106b7565b61158d576040517f08c379a000000000000000000000000000000000000000000000000000000000815260040161158490612158565b60405180910390fd5b6000600260006101000a81548160ff0219169083151502179055507f5db9ee0a495bf2e6ff9c91a7834c1ba4fdd244a5e8aa4e537bd38aeae4b073aa6115d161153e565b6040516115de9190611fdc565b60405180910390a1565b6115f06106b7565b15611630576040517f08c379a0000000000000000000000000000000000000000000000000000000008152600401611627906121b8565b60405180910390fd5b6001600260006101000a81548160ff0219169083151502179055507f62e78cea01bee320cd4e420270b5ea74000d11b0c9f74754ebdbfc544b05a25861167461153e565b6040516116819190611fdc565b60405180910390a1565b600061169a8360000183611b69565b60001c905092915050565b60006116b382600001611c03565b9050919050565b6116d36116c6836103c6565b6116ce61153e565b610b1b565b611712576040517f08c379a000000000000000000000000000000000000000000000000000000000815260040161170990612198565b60405180910390fd5b61171c82826118fe565b5050565b600081600001549050919050565b6001816000016000828254019250508190555050565b61174e8282610b1b565b61182057600160008084815260200190815260200160002060000160008373ffffffffffffffffffffffffffffffffffffffff1673ffffffffffffffffffffffffffffffffffffffff16815260200190815260200160002060006101000a81548160ff0219169083151502179055506117c561153e565b73ffffffffffffffffffffffffffffffffffffffff168173ffffffffffffffffffffffffffffffffffffffff16837f2f8788117e7eff1d82e926ec794901d17c78024a50270940304540a733656f0d60405160405180910390a45b5050565b60006118308383611c14565b61188957826000018290806001815401808255809150506001900390600052602060002001600090919091909150558260000180549050836001016000848152602001908152602001600020819055506001905061188e565b600090505b92915050565b60007f01ffc9a7000000000000000000000000000000000000000000000000000000007bffffffffffffffffffffffffffffffffffffffffffffffffffffffff1916827bffffffffffffffffffffffffffffffffffffffffffffffffffffffff1916149050919050565b6119088282610b1b565b156119db57600080600084815260200190815260200160002060000160008373ffffffffffffffffffffffffffffffffffffffff1673ffffffffffffffffffffffffffffffffffffffff16815260200190815260200160002060006101000a81548160ff02191690831515021790555061198061153e565b73ffffffffffffffffffffffffffffffffffffffff168173ffffffffffffffffffffffffffffffffffffffff16837ff6391f5c32d9c69d2a47ea670b442974b53935d1edc7fd64eb21e047a839171b60405160405180910390a45b5050565b60008083600101600084815260200190815260200160002054905060008114611b5d576000600182611a1191906122fa565b9050600060018660000180549050611a2991906122fa565b90506000866000018281548110611a69577f4e487b7100000000000000000000000000000000000000000000000000000000600052603260045260246000fd5b9060005260206000200154905080876000018481548110611ab3577f4e487b7100000000000000000000000000000000000000000000000000000000600052603260045260246000fd5b9060005260206000200181905550600183611ace91906122a4565b8760010160008381526020019081526020016000208190555086600001805480611b21577f4e487b7100000000000000000000000000000000000000000000000000000000600052603160045260246000fd5b60019003818190600052602060002001600090559055866001016000878152602001908152602001600020600090556001945050505050611b63565b60009150505b92915050565b600081836000018054905011611bb4576040517f08c379a0000000000000000000000000000000000000000000000000000000008152600401611bab90612118565b60405180910390fd5b826000018281548110611bf0577f4e487b7100000000000000000000000000000000000000000000000000000000600052603260045260246000fd5b9060005260206000200154905092915050565b600081600001805490509050919050565b600080836001016000848152602001908152602001600020541415905092915050565b600081359050611c46816126f4565b92915050565b600081519050611c5b8161270b565b92915050565b600081359050611c7081612722565b92915050565b600081359050611c8581612739565b92915050565b600081359050611c9a81612750565b92915050565b60008060008060808587031215611cb657600080fd5b6000611cc487828801611c37565b9450506020611cd587828801611c8b565b9350506040611ce687828801611c37565b9250506060611cf787828801611c8b565b91505092959194509250565b600060208284031215611d1557600080fd5b6000611d2384828501611c4c565b91505092915050565b600060208284031215611d3e57600080fd5b6000611d4c84828501611c61565b91505092915050565b60008060408385031215611d6857600080fd5b6000611d7685828601611c61565b9250506020611d8785828601611c37565b9150509250929050565b60008060408385031215611da457600080fd5b6000611db285828601611c61565b9250506020611dc385828601611c8b565b9150509250929050565b600060208284031215611ddf57600080fd5b6000611ded84828501611c76565b91505092915050565b600060208284031215611e0857600080fd5b6000611e1684828501611c8b565b91505092915050565b611e288161232e565b82525050565b611e3781612340565b82525050565b611e468161234c565b82525050565b6000611e59602283612293565b9150611e64826123db565b604082019050919050565b6000611e7c602f83612293565b9150611e878261242a565b604082019050919050565b6000611e9f601483612293565b9150611eaa82612479565b602082019050919050565b6000611ec2603383612293565b9150611ecd826124a2565b604082019050919050565b6000611ee5603083612293565b9150611ef0826124f1565b604082019050919050565b6000611f08601083612293565b9150611f1382612540565b602082019050919050565b6000611f2b603383612293565b9150611f3682612569565b604082019050919050565b6000611f4e602f83612293565b9150611f59826125b8565b604082019050919050565b6000611f71603183612293565b9150611f7c82612607565b604082019050919050565b6000611f94603583612293565b9150611f9f82612656565b604082019050919050565b6000611fb7602f83612293565b9150611fc2826126a5565b604082019050919050565b611fd6816123a2565b82525050565b6000602082019050611ff16000830184611e1f565b92915050565b600060608201905061200c6000830186611e1f565b6120196020830185611e1f565b6120266040830184611fcd565b949350505050565b60006080820190506120436000830187611e1f565b6120506020830186611fcd565b61205d6040830185611e1f565b61206a6060830184611fcd565b95945050505050565b60006020820190506120886000830184611e2e565b92915050565b600060e0820190506120a3600083018a611e2e565b6120b06020830189611e1f565b6120bd6040830188611e1f565b6120ca6060830187611fcd565b6120d76080830186611e1f565b6120e460a0830185611fcd565b6120f160c0830184611e1f565b98975050505050505050565b60006020820190506121126000830184611e3d565b92915050565b6000602082019050818103600083015261213181611e4c565b9050919050565b6000602082019050818103600083015261215181611e6f565b9050919050565b6000602082019050818103600083015261217181611e92565b9050919050565b6000602082019050818103600083015261219181611eb5565b9050919050565b600060208201905081810360008301526121b181611ed8565b9050919050565b600060208201905081810360008301526121d181611efb565b9050919050565b600060208201905081810360008301526121f181611f1e565b9050919050565b6000602082019050818103600083015261221181611f41565b9050919050565b6000602082019050818103600083015261223181611f64565b9050919050565b6000602082019050818103600083015261225181611f87565b9050919050565b6000602082019050818103600083015261227181611faa565b9050919050565b600060208201905061228d6000830184611fcd565b92915050565b600082825260208201905092915050565b60006122af826123a2565b91506122ba836123a2565b9250827fffffffffffffffffffffffffffffffffffffffffffffffffffffffffffffffff038211156122ef576122ee6123ac565b5b828201905092915050565b6000612305826123a2565b9150612310836123a2565b925082821015612323576123226123ac565b5b828203905092915050565b600061233982612382565b9050919050565b60008115159050919050565b6000819050919050565b60007fffffffff0000000000000000000000000000000000000000000000000000000082169050919050565b600073ffffffffffffffffffffffffffffffffffffffff82169050919050565b6000819050919050565b7f4e487b7100000000000000000000000000000000000000000000000000000000600052601160045260246000fd5b7f456e756d657261626c655365743a20696e646578206f7574206f6620626f756e60008201527f6473000000000000000000000000000000000000000000000000000000000000602082015250565b7f416363657373436f6e74726f6c3a2073656e646572206d75737420626520616e60008201527f2061646d696e20746f206772616e740000000000000000000000000000000000602082015250565b7f5061757361626c653a206e6f7420706175736564000000000000000000000000600082015250565b7f4c656d6f6e6164654d61726b6574706c6163653a206d7573742068617665207060008201527f617573657220726f6c6520746f20706175736500000000000000000000000000602082015250565b7f416363657373436f6e74726f6c3a2073656e646572206d75737420626520616e60008201527f2061646d696e20746f207265766f6b6500000000000000000000000000000000602082015250565b7f5061757361626c653a2070617573656400000000000000000000000000000000600082015250565b7f4c656d6f6e6164654d61726b6574706c6163653a206f66666572206d7573742060008201527f6265206f70656e20746f20776974686472617700000000000000000000000000602082015250565b7f4c656d6f6e6164654d61726b6574706c6163653a206d7573742062652073656c60008201527f6c657220746f2077697468647261770000000000000000000000000000000000602082015250565b7f4c656d6f6e6164654d61726b6574706c6163653a206f66666572206d7573742060008201527f6265206f70656e20746f20616363657074000000000000000000000000000000602082015250565b7f4c656d6f6e6164654d61726b6574706c6163653a206d7573742068617665207060008201527f617573657220726f6c6520746f20756e70617573650000000000000000000000602082015250565b7f416363657373436f6e74726f6c3a2063616e206f6e6c792072656e6f756e636560008201527f20726f6c657320666f722073656c660000000000000000000000000000000000602082015250565b6126fd8161232e565b811461270857600080fd5b50565b61271481612340565b811461271f57600080fd5b50565b61272b8161234c565b811461273657600080fd5b50565b61274281612356565b811461274d57600080fd5b50565b612759816123a2565b811461276457600080fd5b5056fea2646970667358221220acaa5690d18c04146833c7648832529a9fc38837765b284b694dbfe4cb894c9164736f6c63430008030033",
  "immutableReferences": {},
  "source": "// SPDX-License-Identifier: MIT\n\npragma solidity ^0.8.0;\n\nimport \"@openzeppelin/contracts/access/AccessControlEnumerable.sol\";\nimport \"@openzeppelin/contracts/security/Pausable.sol\";\nimport \"@openzeppelin/contracts/token/ERC20/IERC20.sol\";\nimport \"@openzeppelin/contracts/token/ERC721/IERC721.sol\";\nimport \"@openzeppelin/contracts/utils/Counters.sol\";\n\ncontract LemonadeMarketplace is AccessControlEnumerable, Pausable {\n    using Counters for Counters.Counter;\n\n    bytes32 public constant PAUSER_ROLE = keccak256(\"PAUSER_ROLE\");\n\n    Counters.Counter private _offerIdTracker;\n\n    event OfferCreated(uint256 indexed offerId, address indexed seller, address currency, uint256 price, address tokenContract, uint256 tokenId);\n    event OfferAccepted(uint256 indexed offerId, address indexed buyer);\n    event OfferWithdrawn(uint256 indexed offerId);\n\n    struct Offer {\n        bool active;\n        address seller;\n        address currency;\n        uint256 price;\n        address tokenContract;\n        uint256 tokenId;\n        address buyer;\n    }\n    mapping (uint256 => Offer) private _offers;\n\n    constructor() {\n        _setupRole(DEFAULT_ADMIN_ROLE, _msgSender());\n\n        _setupRole(PAUSER_ROLE, _msgSender());\n    }\n\n    function getOffer(uint256 offerId)\n        public\n        virtual\n        view\n        returns(bool, address, address, uint256, address, uint256, address)\n    {\n        Offer memory offer = _offers[offerId];\n\n        return (offer.active, offer.seller, offer.currency, offer.price, offer.tokenContract, offer.tokenId, offer.buyer);\n    }\n\n    function createOffer(address currency, uint256 price, address tokenContract, uint256 tokenId)\n        public\n        virtual\n        whenNotPaused\n    {\n        IERC721(tokenContract).transferFrom(_msgSender(), address(this), tokenId);\n\n        uint256 offerId = _offerIdTracker.current();\n\n        _offers[offerId] = Offer({\n            active: true,\n            seller: _msgSender(),\n            currency: currency,\n            price: price,\n            tokenContract: tokenContract,\n            tokenId: tokenId,\n            buyer: address(0)\n        });\n        emit OfferCreated(offerId, _msgSender(), currency, price, tokenContract, tokenId);\n\n        _offerIdTracker.increment();\n    }\n\n    function withdrawOffer(uint256 offerId)\n        public\n        virtual\n        whenNotPaused\n    {\n        Offer memory offer = _offers[offerId];\n        require(offer.seller == _msgSender() || hasRole(DEFAULT_ADMIN_ROLE, _msgSender()), \"LemonadeMarketplace: must be seller to withdraw\");\n        require(offer.active, \"LemonadeMarketplace: offer must be open to withdraw\");\n\n        IERC721(offer.tokenContract).transferFrom(address(this), offer.seller, offer.tokenId);\n\n        _offers[offerId].active = false;\n        emit OfferWithdrawn(offerId);\n    }\n\n\n    /**\n     * @dev Accepts an offer. Must have approved this contract to transfer the\n     * amount of currency specified to the seller. Transfers ownership of the\n     * item to the filler.\n     */\n    function acceptOffer(uint256 offerId)\n        public\n        virtual\n        whenNotPaused\n    {\n        Offer memory offer = _offers[offerId];\n        require(offer.active, \"LemonadeMarketplace: offer must be open to accept\");\n\n        IERC20(offer.currency).transferFrom(_msgSender(), offer.seller, offer.price);\n        IERC721(offer.tokenContract).transferFrom(address(this), _msgSender(), offer.tokenId);\n\n        _offers[offerId].active = false;\n        _offers[offerId].buyer = _msgSender();\n        emit OfferAccepted(offerId, _msgSender());\n    }\n\n    function pause()\n        public\n        virtual\n    {\n        require(hasRole(PAUSER_ROLE, _msgSender()), \"LemonadeMarketplace: must have pauser role to pause\");\n        _pause();\n    }\n\n    function unpause()\n        public\n        virtual\n    {\n        require(hasRole(PAUSER_ROLE, _msgSender()), \"LemonadeMarketplace: must have pauser role to unpause\");\n        _unpause();\n    }\n}\n",
  "sourcePath": "/home/chris/contract/contracts/LemonadeMarketplace.sol",
  "compiler": {
    "name": "solc",
    "version": "0.8.3+commit.8d00100c.Emscripten.clang"
  },
  "schemaVersion": "3.3.4",
  "updatedAt": "2021-04-18T12:31:33.730Z",
  "networkType": "ethereum",
  "devdoc": {
    "kind": "dev",
    "methods": {
      "acceptOffer(uint256)": {
        "details": "Accepts an offer. Must have approved this contract to transfer the amount of currency specified to the seller. Transfers ownership of the item to the filler."
      },
      "getRoleAdmin(bytes32)": {
        "details": "Returns the admin role that controls `role`. See {grantRole} and {revokeRole}. To change a role's admin, use {_setRoleAdmin}."
      },
      "getRoleMember(bytes32,uint256)": {
        "details": "Returns one of the accounts that have `role`. `index` must be a value between 0 and {getRoleMemberCount}, non-inclusive. Role bearers are not sorted in any particular way, and their ordering may change at any point. WARNING: When using {getRoleMember} and {getRoleMemberCount}, make sure you perform all queries on the same block. See the following https://forum.openzeppelin.com/t/iterating-over-elements-on-enumerableset-in-openzeppelin-contracts/2296[forum post] for more information."
      },
      "getRoleMemberCount(bytes32)": {
        "details": "Returns the number of accounts that have `role`. Can be used together with {getRoleMember} to enumerate all bearers of a role."
      },
      "grantRole(bytes32,address)": {
        "details": "Overload {grantRole} to track enumerable memberships"
      },
      "hasRole(bytes32,address)": {
        "details": "Returns `true` if `account` has been granted `role`."
      },
      "paused()": {
        "details": "Returns true if the contract is paused, and false otherwise."
      },
      "renounceRole(bytes32,address)": {
        "details": "Overload {renounceRole} to track enumerable memberships"
      },
      "revokeRole(bytes32,address)": {
        "details": "Overload {revokeRole} to track enumerable memberships"
      },
      "supportsInterface(bytes4)": {
        "details": "See {IERC165-supportsInterface}."
      }
    },
    "version": 1
  },
  "userdoc": {
    "kind": "user",
    "methods": {},
    "version": 1
  }
}