{
  "_format": "hh-sol-artifact-1",
  "contractName": "LemonadeMarketplace",
  "sourceName": "contracts/LemonadeMarketplace.sol",
  "abi": [
    {
      "inputs": [
        {
          "internalType": "address",
          "name": "feeMaker",
          "type": "address"
        },
        {
          "internalType": "uint256",
          "name": "feeFraction",
          "type": "uint256"
        }
      ],
      "stateMutability": "nonpayable",
      "type": "constructor"
    },
    {
      "anonymous": false,
      "inputs": [
        {
          "indexed": true,
          "internalType": "uint256",
          "name": "orderId",
          "type": "uint256"
        },
        {
          "indexed": true,
          "internalType": "address",
          "name": "bidder",
          "type": "address"
        },
        {
          "indexed": false,
          "internalType": "uint256",
          "name": "bidAmount",
          "type": "uint256"
        }
      ],
      "name": "OrderBid",
      "type": "event"
    },
    {
      "anonymous": false,
      "inputs": [
        {
          "indexed": true,
          "internalType": "uint256",
          "name": "orderId",
          "type": "uint256"
        }
      ],
      "name": "OrderCancelled",
      "type": "event"
    },
    {
      "anonymous": false,
      "inputs": [
        {
          "indexed": true,
          "internalType": "uint256",
          "name": "orderId",
          "type": "uint256"
        },
        {
          "indexed": false,
          "internalType": "enum LemonadeMarketplace.OrderKind",
          "name": "kind",
          "type": "uint8"
        },
        {
          "indexed": false,
          "internalType": "uint256",
          "name": "openFrom",
          "type": "uint256"
        },
        {
          "indexed": false,
          "internalType": "uint256",
          "name": "openTo",
          "type": "uint256"
        },
        {
          "indexed": true,
          "internalType": "address",
          "name": "maker",
          "type": "address"
        },
        {
          "indexed": false,
          "internalType": "address",
          "name": "currency",
          "type": "address"
        },
        {
          "indexed": false,
          "internalType": "uint256",
          "name": "price",
          "type": "uint256"
        },
        {
          "indexed": false,
          "internalType": "address",
          "name": "tokenContract",
          "type": "address"
        },
        {
          "indexed": false,
          "internalType": "uint256",
          "name": "tokenId",
          "type": "uint256"
        }
      ],
      "name": "OrderCreated",
      "type": "event"
    },
    {
      "anonymous": false,
      "inputs": [
        {
          "indexed": true,
          "internalType": "uint256",
          "name": "orderId",
          "type": "uint256"
        },
        {
          "indexed": true,
          "internalType": "address",
          "name": "taker",
          "type": "address"
        },
        {
          "indexed": false,
          "internalType": "uint256",
          "name": "paidAmount",
          "type": "uint256"
        }
      ],
      "name": "OrderFilled",
      "type": "event"
    },
    {
      "anonymous": false,
      "inputs": [
        {
          "indexed": false,
          "internalType": "address",
          "name": "account",
          "type": "address"
        }
      ],
      "name": "Paused",
      "type": "event"
    },
    {
      "anonymous": false,
      "inputs": [
        {
          "indexed": true,
          "internalType": "bytes32",
          "name": "role",
          "type": "bytes32"
        },
        {
          "indexed": true,
          "internalType": "bytes32",
          "name": "previousAdminRole",
          "type": "bytes32"
        },
        {
          "indexed": true,
          "internalType": "bytes32",
          "name": "newAdminRole",
          "type": "bytes32"
        }
      ],
      "name": "RoleAdminChanged",
      "type": "event"
    },
    {
      "anonymous": false,
      "inputs": [
        {
          "indexed": true,
          "internalType": "bytes32",
          "name": "role",
          "type": "bytes32"
        },
        {
          "indexed": true,
          "internalType": "address",
          "name": "account",
          "type": "address"
        },
        {
          "indexed": true,
          "internalType": "address",
          "name": "sender",
          "type": "address"
        }
      ],
      "name": "RoleGranted",
      "type": "event"
    },
    {
      "anonymous": false,
      "inputs": [
        {
          "indexed": true,
          "internalType": "bytes32",
          "name": "role",
          "type": "bytes32"
        },
        {
          "indexed": true,
          "internalType": "address",
          "name": "account",
          "type": "address"
        },
        {
          "indexed": true,
          "internalType": "address",
          "name": "sender",
          "type": "address"
        }
      ],
      "name": "RoleRevoked",
      "type": "event"
    },
    {
      "anonymous": false,
      "inputs": [
        {
          "indexed": false,
          "internalType": "address",
          "name": "account",
          "type": "address"
        }
      ],
      "name": "Unpaused",
      "type": "event"
    },
    {
      "inputs": [],
      "name": "DEFAULT_ADMIN_ROLE",
      "outputs": [
        {
          "internalType": "bytes32",
          "name": "",
          "type": "bytes32"
        }
      ],
      "stateMutability": "view",
      "type": "function"
    },
    {
      "inputs": [],
      "name": "FEE_FRACTION",
      "outputs": [
        {
          "internalType": "uint256",
          "name": "",
          "type": "uint256"
        }
      ],
      "stateMutability": "view",
      "type": "function"
    },
    {
      "inputs": [],
      "name": "FEE_MAKER",
      "outputs": [
        {
          "internalType": "address",
          "name": "",
          "type": "address"
        }
      ],
      "stateMutability": "view",
      "type": "function"
    },
    {
      "inputs": [],
      "name": "PAUSER_ROLE",
      "outputs": [
        {
          "internalType": "bytes32",
          "name": "",
          "type": "bytes32"
        }
      ],
      "stateMutability": "view",
      "type": "function"
    },
    {
      "inputs": [
        {
          "internalType": "uint256",
          "name": "orderId",
          "type": "uint256"
        },
        {
          "internalType": "uint256",
          "name": "amount",
          "type": "uint256"
        }
      ],
      "name": "bidOrder",
      "outputs": [],
      "stateMutability": "nonpayable",
      "type": "function"
    },
    {
      "inputs": [
        {
          "internalType": "uint256",
          "name": "orderId",
          "type": "uint256"
        }
      ],
      "name": "cancelOrder",
      "outputs": [],
      "stateMutability": "nonpayable",
      "type": "function"
    },
    {
      "inputs": [
        {
          "internalType": "enum LemonadeMarketplace.OrderKind",
          "name": "kind",
          "type": "uint8"
        },
        {
          "internalType": "uint256",
          "name": "openFrom",
          "type": "uint256"
        },
        {
          "internalType": "uint256",
          "name": "openTo",
          "type": "uint256"
        },
        {
          "internalType": "address",
          "name": "currency",
          "type": "address"
        },
        {
          "internalType": "uint256",
          "name": "price",
          "type": "uint256"
        },
        {
          "internalType": "address",
          "name": "tokenContract",
          "type": "address"
        },
        {
          "internalType": "uint256",
          "name": "tokenId",
          "type": "uint256"
        }
      ],
      "name": "createOrder",
      "outputs": [
        {
          "internalType": "uint256",
          "name": "",
          "type": "uint256"
        }
      ],
      "stateMutability": "nonpayable",
      "type": "function"
    },
    {
      "inputs": [],
      "name": "fee",
      "outputs": [
        {
          "internalType": "address",
          "name": "",
          "type": "address"
        },
        {
          "internalType": "uint256",
          "name": "",
          "type": "uint256"
        }
      ],
      "stateMutability": "view",
      "type": "function"
    },
    {
      "inputs": [
        {
          "internalType": "uint256",
          "name": "orderId",
          "type": "uint256"
        },
        {
          "internalType": "uint256",
          "name": "amount",
          "type": "uint256"
        }
      ],
      "name": "fillOrder",
      "outputs": [],
      "stateMutability": "nonpayable",
      "type": "function"
    },
    {
      "inputs": [
        {
          "internalType": "bytes32",
          "name": "role",
          "type": "bytes32"
        }
      ],
      "name": "getRoleAdmin",
      "outputs": [
        {
          "internalType": "bytes32",
          "name": "",
          "type": "bytes32"
        }
      ],
      "stateMutability": "view",
      "type": "function"
    },
    {
      "inputs": [
        {
          "internalType": "bytes32",
          "name": "role",
          "type": "bytes32"
        },
        {
          "internalType": "uint256",
          "name": "index",
          "type": "uint256"
        }
      ],
      "name": "getRoleMember",
      "outputs": [
        {
          "internalType": "address",
          "name": "",
          "type": "address"
        }
      ],
      "stateMutability": "view",
      "type": "function"
    },
    {
      "inputs": [
        {
          "internalType": "bytes32",
          "name": "role",
          "type": "bytes32"
        }
      ],
      "name": "getRoleMemberCount",
      "outputs": [
        {
          "internalType": "uint256",
          "name": "",
          "type": "uint256"
        }
      ],
      "stateMutability": "view",
      "type": "function"
    },
    {
      "inputs": [
        {
          "internalType": "bytes32",
          "name": "role",
          "type": "bytes32"
        },
        {
          "internalType": "address",
          "name": "account",
          "type": "address"
        }
      ],
      "name": "grantRole",
      "outputs": [],
      "stateMutability": "nonpayable",
      "type": "function"
    },
    {
      "inputs": [
        {
          "internalType": "bytes32",
          "name": "role",
          "type": "bytes32"
        },
        {
          "internalType": "address",
          "name": "account",
          "type": "address"
        }
      ],
      "name": "hasRole",
      "outputs": [
        {
          "internalType": "bool",
          "name": "",
          "type": "bool"
        }
      ],
      "stateMutability": "view",
      "type": "function"
    },
    {
      "inputs": [
        {
          "internalType": "uint256",
          "name": "orderId",
          "type": "uint256"
        }
      ],
      "name": "order",
      "outputs": [
        {
          "internalType": "enum LemonadeMarketplace.OrderKind",
          "name": "",
          "type": "uint8"
        },
        {
          "internalType": "bool",
          "name": "",
          "type": "bool"
        },
        {
          "internalType": "uint256",
          "name": "",
          "type": "uint256"
        },
        {
          "internalType": "uint256",
          "name": "",
          "type": "uint256"
        },
        {
          "internalType": "address",
          "name": "",
          "type": "address"
        },
        {
          "internalType": "address",
          "name": "",
          "type": "address"
        },
        {
          "internalType": "uint256",
          "name": "",
          "type": "uint256"
        },
        {
          "internalType": "uint256",
          "name": "",
          "type": "uint256"
        },
        {
          "internalType": "address",
          "name": "",
          "type": "address"
        },
        {
          "internalType": "uint256",
          "name": "",
          "type": "uint256"
        }
      ],
      "stateMutability": "view",
      "type": "function"
    },
    {
      "inputs": [],
      "name": "pause",
      "outputs": [],
      "stateMutability": "nonpayable",
      "type": "function"
    },
    {
      "inputs": [],
      "name": "paused",
      "outputs": [
        {
          "internalType": "bool",
          "name": "",
          "type": "bool"
        }
      ],
      "stateMutability": "view",
      "type": "function"
    },
    {
      "inputs": [
        {
          "internalType": "bytes32",
          "name": "role",
          "type": "bytes32"
        },
        {
          "internalType": "address",
          "name": "account",
          "type": "address"
        }
      ],
      "name": "renounceRole",
      "outputs": [],
      "stateMutability": "nonpayable",
      "type": "function"
    },
    {
      "inputs": [
        {
          "internalType": "bytes32",
          "name": "role",
          "type": "bytes32"
        },
        {
          "internalType": "address",
          "name": "account",
          "type": "address"
        }
      ],
      "name": "revokeRole",
      "outputs": [],
      "stateMutability": "nonpayable",
      "type": "function"
    },
    {
      "inputs": [
        {
          "internalType": "bytes4",
          "name": "interfaceId",
          "type": "bytes4"
        }
      ],
      "name": "supportsInterface",
      "outputs": [
        {
          "internalType": "bool",
          "name": "",
          "type": "bool"
        }
      ],
      "stateMutability": "view",
      "type": "function"
    },
    {
      "inputs": [
        {
          "internalType": "uint256",
          "name": "orderId",
          "type": "uint256"
        }
      ],
      "name": "token",
      "outputs": [
        {
          "internalType": "address",
          "name": "",
          "type": "address"
        },
        {
          "internalType": "uint256",
          "name": "",
          "type": "uint256"
        }
      ],
      "stateMutability": "view",
      "type": "function"
    },
    {
      "inputs": [],
      "name": "unpause",
      "outputs": [],
      "stateMutability": "nonpayable",
      "type": "function"
    }
  ],
  "bytecode": "0x60c06040523480156200001157600080fd5b5060405162005e5538038062005e558339818101604052810190620000379190620003c2565b6000600260006101000a81548160ff0219169083151502179055508173ffffffffffffffffffffffffffffffffffffffff1660808173ffffffffffffffffffffffffffffffffffffffff1660601b815250508060a08181525050620000b56000801b620000a9620000fe60201b60201c565b6200010660201b60201c565b620000f67f65d7a28e3265b37a6474929f336521b332c1681b933f6cb9f3376673440d862a620000ea620000fe60201b60201c565b6200010660201b60201c565b505062000475565b600033905090565b6200011d82826200014e60201b620034a11760201c565b6200014981600160008581526020019081526020016000206200016460201b620034af1790919060201c565b505050565b6200016082826200019c60201b60201c565b5050565b600062000194836000018373ffffffffffffffffffffffffffffffffffffffff1660001b6200028d60201b60201c565b905092915050565b620001ae82826200030760201b60201c565b6200028957600160008084815260200190815260200160002060000160008373ffffffffffffffffffffffffffffffffffffffff1673ffffffffffffffffffffffffffffffffffffffff16815260200190815260200160002060006101000a81548160ff0219169083151502179055506200022e620000fe60201b60201c565b73ffffffffffffffffffffffffffffffffffffffff168173ffffffffffffffffffffffffffffffffffffffff16837f2f8788117e7eff1d82e926ec794901d17c78024a50270940304540a733656f0d60405160405180910390a45b5050565b6000620002a183836200037160201b60201c565b620002fc57826000018290806001815401808255809150506001900390600052602060002001600090919091909150558260000180549050836001016000848152602001908152602001600020819055506001905062000301565b600090505b92915050565b600080600084815260200190815260200160002060000160008373ffffffffffffffffffffffffffffffffffffffff1673ffffffffffffffffffffffffffffffffffffffff16815260200190815260200160002060009054906101000a900460ff16905092915050565b600080836001016000848152602001908152602001600020541415905092915050565b600081519050620003a58162000441565b92915050565b600081519050620003bc816200045b565b92915050565b60008060408385031215620003d657600080fd5b6000620003e68582860162000394565b9250506020620003f985828601620003ab565b9150509250929050565b6000620004108262000417565b9050919050565b600073ffffffffffffffffffffffffffffffffffffffff82169050919050565b6000819050919050565b6200044c8162000403565b81146200045857600080fd5b50565b620004668162000437565b81146200047257600080fd5b50565b60805160601c60a05161599b620004ba6000396000818161108c0152818161314c015261345601526000818161156e015281816131920152613435015261599b6000f3fe608060405234801561001057600080fd5b50600436106101425760003560e01c80635c975abb116100b8578063b858fb5f1161007c578063b858fb5f14610381578063c37dfc5b1461039d578063ca15c873146103b9578063d547741f146103e9578063ddca3f4314610405578063e63ab1e91461042457610142565b80635c975abb146102db5780638456cb59146102f95780639010d07c1461030357806391d1485414610333578063a217fddf1461036357610142565b8063248a9ca31161010a578063248a9ca31461022f5780632f2ff15d1461025f57806336568abe1461027b5780633f4ba83a146102975780634ecd9f7e146102a1578063514fcac7146102bf57610142565b806301ffc9a714610147578063044215c6146101775780630c109710146101a85780631b1c61e1146101d857806321603f43146101f6575b600080fd5b610161600480360381019061015c91906143be565b610442565b60405161016e91906149e2565b60405180910390f35b610191600480360381019061018c9190614485565b6104bc565b60405161019f9291906149b9565b60405180910390f35b6101c260048036038101906101bd91906143e7565b61082b565b6040516101cf9190614e45565b60405180910390f35b6101e061108a565b6040516101ed9190614e45565b60405180910390f35b610210600480360381019061020b9190614485565b6110ae565b6040516102269a99989796959493929190614a18565b60405180910390f35b6102496004803603810190610244919061431d565b61146b565b60405161025691906149fd565b60405180910390f35b61027960048036038101906102749190614346565b61148a565b005b61029560048036038101906102909190614346565b6114be565b005b61029f6114f2565b005b6102a961156c565b6040516102b69190614967565b60405180910390f35b6102d960048036038101906102d49190614485565b611590565b005b6102e3611b57565b6040516102f091906149e2565b60405180910390f35b610301611b6e565b005b61031d60048036038101906103189190614382565b611be8565b60405161032a9190614967565b60405180910390f35b61034d60048036038101906103489190614346565b611c17565b60405161035a91906149e2565b60405180910390f35b61036b611c81565b60405161037891906149fd565b60405180910390f35b61039b600480360381019061039691906144ae565b611c88565b005b6103b760048036038101906103b291906144ae565b61262c565b005b6103d360048036038101906103ce919061431d565b6133d8565b6040516103e09190614e45565b60405180910390f35b61040360048036038101906103fe9190614346565b6133fc565b005b61040d613430565b60405161041b9291906149b9565b60405180910390f35b61042c61347d565b60405161043991906149fd565b60405180910390f35b60007f5a05180f000000000000000000000000000000000000000000000000000000007bffffffffffffffffffffffffffffffffffffffffffffffffffffffff1916827bffffffffffffffffffffffffffffffffffffffffffffffffffffffff191614806104b557506104b4826134df565b5b9050919050565b60008082600073ffffffffffffffffffffffffffffffffffffffff166003600083815260200190815260200160002060030160009054906101000a900473ffffffffffffffffffffffffffffffffffffffff1673ffffffffffffffffffffffffffffffffffffffff161415610566576040517f08c379a000000000000000000000000000000000000000000000000000000000815260040161055d90614d25565b60405180910390fd5b600060036000868152602001908152602001600020604051806101a00160405290816000820160009054906101000a900460ff1660018111156105d2577f4e487b7100000000000000000000000000000000000000000000000000000000600052602160045260246000fd5b600181111561060a577f4e487b7100000000000000000000000000000000000000000000000000000000600052602160045260246000fd5b81526020016000820160019054906101000a900460ff1615151515815260200160018201548152602001600282015481526020016003820160009054906101000a900473ffffffffffffffffffffffffffffffffffffffff1673ffffffffffffffffffffffffffffffffffffffff1673ffffffffffffffffffffffffffffffffffffffff1681526020016004820160009054906101000a900473ffffffffffffffffffffffffffffffffffffffff1673ffffffffffffffffffffffffffffffffffffffff1673ffffffffffffffffffffffffffffffffffffffff168152602001600582015481526020016006820160009054906101000a900473ffffffffffffffffffffffffffffffffffffffff1673ffffffffffffffffffffffffffffffffffffffff1673ffffffffffffffffffffffffffffffffffffffff168152602001600782015481526020016008820160009054906101000a900473ffffffffffffffffffffffffffffffffffffffff1673ffffffffffffffffffffffffffffffffffffffff1673ffffffffffffffffffffffffffffffffffffffff16815260200160098201548152602001600a820160009054906101000a900473ffffffffffffffffffffffffffffffffffffffff1673ffffffffffffffffffffffffffffffffffffffff1673ffffffffffffffffffffffffffffffffffffffff168152602001600b8201548152505090508060e00151816101000151935093505050915091565b6000610835611b57565b15610875576040517f08c379a000000000000000000000000000000000000000000000000000000000815260040161086c90614c85565b60405180910390fd5b60006108818888613559565b9050600081116108c6576040517f08c379a00000000000000000000000000000000000000000000000000000000081526004016108bd90614ca5565b60405180910390fd5b6001808111156108ff577f4e487b7100000000000000000000000000000000000000000000000000000000600052602160045260246000fd5b896001811115610938577f4e487b7100000000000000000000000000000000000000000000000000000000600052602160045260246000fd5b141561098457612760811115610983576040517f08c379a000000000000000000000000000000000000000000000000000000000815260040161097a90614c05565b60405180910390fd5b5b8373ffffffffffffffffffffffffffffffffffffffff166323b872dd6109a86135ca565b30866040518463ffffffff1660e01b81526004016109c893929190614982565b600060405180830381600087803b1580156109e257600080fd5b505af11580156109f6573d6000803e3d6000fd5b505050506000610a0660046135d2565b9050604051806101a001604052808b6001811115610a4d577f4e487b7100000000000000000000000000000000000000000000000000000000600052602160045260246000fd5b81526020016001151581526020018a8152602001898152602001610a6f6135ca565b73ffffffffffffffffffffffffffffffffffffffff1681526020018873ffffffffffffffffffffffffffffffffffffffff1681526020018781526020018673ffffffffffffffffffffffffffffffffffffffff168152602001858152602001600073ffffffffffffffffffffffffffffffffffffffff16815260200160008152602001600073ffffffffffffffffffffffffffffffffffffffff16815260200160008152506003600083815260200190815260200160002060008201518160000160006101000a81548160ff02191690836001811115610b78577f4e487b7100000000000000000000000000000000000000000000000000000000600052602160045260246000fd5b021790555060208201518160000160016101000a81548160ff021916908315150217905550604082015181600101556060820151816002015560808201518160030160006101000a81548173ffffffffffffffffffffffffffffffffffffffff021916908373ffffffffffffffffffffffffffffffffffffffff16021790555060a08201518160040160006101000a81548173ffffffffffffffffffffffffffffffffffffffff021916908373ffffffffffffffffffffffffffffffffffffffff16021790555060c0820151816005015560e08201518160060160006101000a81548173ffffffffffffffffffffffffffffffffffffffff021916908373ffffffffffffffffffffffffffffffffffffffff16021790555061010082015181600701556101208201518160080160006101000a81548173ffffffffffffffffffffffffffffffffffffffff021916908373ffffffffffffffffffffffffffffffffffffffff160217905550610140820151816009015561016082015181600a0160006101000a81548173ffffffffffffffffffffffffffffffffffffffff021916908373ffffffffffffffffffffffffffffffffffffffff16021790555061018082015181600b0155905050610d4e60046135e0565b600060036000838152602001908152602001600020604051806101a00160405290816000820160009054906101000a900460ff166001811115610dba577f4e487b7100000000000000000000000000000000000000000000000000000000600052602160045260246000fd5b6001811115610df2577f4e487b7100000000000000000000000000000000000000000000000000000000600052602160045260246000fd5b81526020016000820160019054906101000a900460ff1615151515815260200160018201548152602001600282015481526020016003820160009054906101000a900473ffffffffffffffffffffffffffffffffffffffff1673ffffffffffffffffffffffffffffffffffffffff1673ffffffffffffffffffffffffffffffffffffffff1681526020016004820160009054906101000a900473ffffffffffffffffffffffffffffffffffffffff1673ffffffffffffffffffffffffffffffffffffffff1673ffffffffffffffffffffffffffffffffffffffff168152602001600582015481526020016006820160009054906101000a900473ffffffffffffffffffffffffffffffffffffffff1673ffffffffffffffffffffffffffffffffffffffff1673ffffffffffffffffffffffffffffffffffffffff168152602001600782015481526020016008820160009054906101000a900473ffffffffffffffffffffffffffffffffffffffff1673ffffffffffffffffffffffffffffffffffffffff1673ffffffffffffffffffffffffffffffffffffffff16815260200160098201548152602001600a820160009054906101000a900473ffffffffffffffffffffffffffffffffffffffff1673ffffffffffffffffffffffffffffffffffffffff1673ffffffffffffffffffffffffffffffffffffffff168152602001600b820154815250509050806080015173ffffffffffffffffffffffffffffffffffffffff16827f4e400f43dce6cc22df28146360114559ffae81b0644d4752872c7def6d77319e8360000151846040015185606001518660a001518760c001518860e001518961010001516040516110719796959493929190614ab4565b60405180910390a3819350505050979650505050505050565b7f000000000000000000000000000000000000000000000000000000000000000081565b6000806000806000806000806000808a600073ffffffffffffffffffffffffffffffffffffffff166003600083815260200190815260200160002060030160009054906101000a900473ffffffffffffffffffffffffffffffffffffffff1673ffffffffffffffffffffffffffffffffffffffff161415611164576040517f08c379a000000000000000000000000000000000000000000000000000000000815260040161115b90614d25565b60405180910390fd5b6000600360008e8152602001908152602001600020604051806101a00160405290816000820160009054906101000a900460ff1660018111156111d0577f4e487b7100000000000000000000000000000000000000000000000000000000600052602160045260246000fd5b6001811115611208577f4e487b7100000000000000000000000000000000000000000000000000000000600052602160045260246000fd5b81526020016000820160019054906101000a900460ff1615151515815260200160018201548152602001600282015481526020016003820160009054906101000a900473ffffffffffffffffffffffffffffffffffffffff1673ffffffffffffffffffffffffffffffffffffffff1673ffffffffffffffffffffffffffffffffffffffff1681526020016004820160009054906101000a900473ffffffffffffffffffffffffffffffffffffffff1673ffffffffffffffffffffffffffffffffffffffff1673ffffffffffffffffffffffffffffffffffffffff168152602001600582015481526020016006820160009054906101000a900473ffffffffffffffffffffffffffffffffffffffff1673ffffffffffffffffffffffffffffffffffffffff1673ffffffffffffffffffffffffffffffffffffffff168152602001600782015481526020016008820160009054906101000a900473ffffffffffffffffffffffffffffffffffffffff1673ffffffffffffffffffffffffffffffffffffffff1673ffffffffffffffffffffffffffffffffffffffff16815260200160098201548152602001600a820160009054906101000a900473ffffffffffffffffffffffffffffffffffffffff1673ffffffffffffffffffffffffffffffffffffffff1673ffffffffffffffffffffffffffffffffffffffff168152602001600b820154815250509050806000015181602001518260400151836060015184608001518560a001518660c001518761014001518861016001518961018001519b509b509b509b509b509b509b509b509b509b5050509193959799509193959799565b6000806000838152602001908152602001600020600101549050919050565b61149482826135f6565b6114b981600160008581526020019081526020016000206134af90919063ffffffff16565b505050565b6114c8828261361f565b6114ed81600160008581526020019081526020016000206136a290919063ffffffff16565b505050565b6115237f65d7a28e3265b37a6474929f336521b332c1681b933f6cb9f3376673440d862a61151e6135ca565b611c17565b611562576040517f08c379a000000000000000000000000000000000000000000000000000000000815260040161155990614d85565b60405180910390fd5b61156a6136d2565b565b7f000000000000000000000000000000000000000000000000000000000000000081565b611598611b57565b156115d8576040517f08c379a00000000000000000000000000000000000000000000000000000000081526004016115cf90614c85565b60405180910390fd5b80600073ffffffffffffffffffffffffffffffffffffffff166003600083815260200190815260200160002060030160009054906101000a900473ffffffffffffffffffffffffffffffffffffffff1673ffffffffffffffffffffffffffffffffffffffff16141561167f576040517f08c379a000000000000000000000000000000000000000000000000000000000815260040161167690614d25565b60405180910390fd5b600060036000848152602001908152602001600020604051806101a00160405290816000820160009054906101000a900460ff1660018111156116eb577f4e487b7100000000000000000000000000000000000000000000000000000000600052602160045260246000fd5b6001811115611723577f4e487b7100000000000000000000000000000000000000000000000000000000600052602160045260246000fd5b81526020016000820160019054906101000a900460ff1615151515815260200160018201548152602001600282015481526020016003820160009054906101000a900473ffffffffffffffffffffffffffffffffffffffff1673ffffffffffffffffffffffffffffffffffffffff1673ffffffffffffffffffffffffffffffffffffffff1681526020016004820160009054906101000a900473ffffffffffffffffffffffffffffffffffffffff1673ffffffffffffffffffffffffffffffffffffffff1673ffffffffffffffffffffffffffffffffffffffff168152602001600582015481526020016006820160009054906101000a900473ffffffffffffffffffffffffffffffffffffffff1673ffffffffffffffffffffffffffffffffffffffff1673ffffffffffffffffffffffffffffffffffffffff168152602001600782015481526020016008820160009054906101000a900473ffffffffffffffffffffffffffffffffffffffff1673ffffffffffffffffffffffffffffffffffffffff1673ffffffffffffffffffffffffffffffffffffffff16815260200160098201548152602001600a820160009054906101000a900473ffffffffffffffffffffffffffffffffffffffff1673ffffffffffffffffffffffffffffffffffffffff1673ffffffffffffffffffffffffffffffffffffffff168152602001600b8201548152505090506119366135ca565b73ffffffffffffffffffffffffffffffffffffffff16816080015173ffffffffffffffffffffffffffffffffffffffff16148061198357506119826000801b61197d6135ca565b611c17565b5b6119c2576040517f08c379a00000000000000000000000000000000000000000000000000000000081526004016119b990614d05565b60405180910390fd5b8060200151611a06576040517f08c379a00000000000000000000000000000000000000000000000000000000081526004016119fd90614ce5565b60405180910390fd5b600073ffffffffffffffffffffffffffffffffffffffff1681610120015173ffffffffffffffffffffffffffffffffffffffff1614611a7a576040517f08c379a0000000000000000000000000000000000000000000000000000000008152600401611a7190614cc5565b60405180910390fd5b8060e0015173ffffffffffffffffffffffffffffffffffffffff166342842e0e3083608001518461010001516040518463ffffffff1660e01b8152600401611ac493929190614982565b600060405180830381600087803b158015611ade57600080fd5b505af1158015611af2573d6000803e3d6000fd5b5050505060006003600085815260200190815260200160002060000160016101000a81548160ff021916908315150217905550827f61b9399f2f0f32ca39ce8d7be32caed5ec22fe07a6daba3a467ed479ec60658260405160405180910390a2505050565b6000600260009054906101000a900460ff16905090565b611b9f7f65d7a28e3265b37a6474929f336521b332c1681b933f6cb9f3376673440d862a611b9a6135ca565b611c17565b611bde576040517f08c379a0000000000000000000000000000000000000000000000000000000008152600401611bd590614ba5565b60405180910390fd5b611be6613774565b565b6000611c0f826001600086815260200190815260200160002061381790919063ffffffff16565b905092915050565b600080600084815260200190815260200160002060000160008373ffffffffffffffffffffffffffffffffffffffff1673ffffffffffffffffffffffffffffffffffffffff16815260200190815260200160002060009054906101000a900460ff16905092915050565b6000801b81565b611c90611b57565b15611cd0576040517f08c379a0000000000000000000000000000000000000000000000000000000008152600401611cc790614c85565b60405180910390fd5b81600073ffffffffffffffffffffffffffffffffffffffff166003600083815260200190815260200160002060030160009054906101000a900473ffffffffffffffffffffffffffffffffffffffff1673ffffffffffffffffffffffffffffffffffffffff161415611d77576040517f08c379a0000000000000000000000000000000000000000000000000000000008152600401611d6e90614d25565b60405180910390fd5b600060036000858152602001908152602001600020604051806101a00160405290816000820160009054906101000a900460ff166001811115611de3577f4e487b7100000000000000000000000000000000000000000000000000000000600052602160045260246000fd5b6001811115611e1b577f4e487b7100000000000000000000000000000000000000000000000000000000600052602160045260246000fd5b81526020016000820160019054906101000a900460ff1615151515815260200160018201548152602001600282015481526020016003820160009054906101000a900473ffffffffffffffffffffffffffffffffffffffff1673ffffffffffffffffffffffffffffffffffffffff1673ffffffffffffffffffffffffffffffffffffffff1681526020016004820160009054906101000a900473ffffffffffffffffffffffffffffffffffffffff1673ffffffffffffffffffffffffffffffffffffffff1673ffffffffffffffffffffffffffffffffffffffff168152602001600582015481526020016006820160009054906101000a900473ffffffffffffffffffffffffffffffffffffffff1673ffffffffffffffffffffffffffffffffffffffff1673ffffffffffffffffffffffffffffffffffffffff168152602001600782015481526020016008820160009054906101000a900473ffffffffffffffffffffffffffffffffffffffff1673ffffffffffffffffffffffffffffffffffffffff1673ffffffffffffffffffffffffffffffffffffffff16815260200160098201548152602001600a820160009054906101000a900473ffffffffffffffffffffffffffffffffffffffff1673ffffffffffffffffffffffffffffffffffffffff1673ffffffffffffffffffffffffffffffffffffffff168152602001600b82015481525050905060018081111561205f577f4e487b7100000000000000000000000000000000000000000000000000000000600052602160045260246000fd5b8160000151600181111561209c577f4e487b7100000000000000000000000000000000000000000000000000000000600052602160045260246000fd5b146120dc576040517f08c379a00000000000000000000000000000000000000000000000000000000081526004016120d390614c25565b60405180910390fd5b8060200151612120576040517f08c379a000000000000000000000000000000000000000000000000000000000815260040161211790614be5565b60405180910390fd5b4281604001511115612167576040517f08c379a000000000000000000000000000000000000000000000000000000000815260040161215e90614d65565b60405180910390fd5b428160600151116121ad576040517f08c379a00000000000000000000000000000000000000000000000000000000081526004016121a490614bc5565b60405180910390fd5b828160c0015111156121f4576040517f08c379a00000000000000000000000000000000000000000000000000000000081526004016121eb90614d45565b60405180910390fd5b600073ffffffffffffffffffffffffffffffffffffffff1681610120015173ffffffffffffffffffffffffffffffffffffffff161461228f578281610140015110612274576040517f08c379a000000000000000000000000000000000000000000000000000000000815260040161226b90614e25565b60405180910390fd5b61228e8160a0015130836101200151846101400151613831565b5b6122976135ca565b6003600086815260200190815260200160002060080160006101000a81548173ffffffffffffffffffffffffffffffffffffffff021916908373ffffffffffffffffffffffffffffffffffffffff16021790555082600360008681526020019081526020016000206009018190555060036000858152602001908152602001600020604051806101a00160405290816000820160009054906101000a900460ff166001811115612370577f4e487b7100000000000000000000000000000000000000000000000000000000600052602160045260246000fd5b60018111156123a8577f4e487b7100000000000000000000000000000000000000000000000000000000600052602160045260246000fd5b81526020016000820160019054906101000a900460ff1615151515815260200160018201548152602001600282015481526020016003820160009054906101000a900473ffffffffffffffffffffffffffffffffffffffff1673ffffffffffffffffffffffffffffffffffffffff1673ffffffffffffffffffffffffffffffffffffffff1681526020016004820160009054906101000a900473ffffffffffffffffffffffffffffffffffffffff1673ffffffffffffffffffffffffffffffffffffffff1673ffffffffffffffffffffffffffffffffffffffff168152602001600582015481526020016006820160009054906101000a900473ffffffffffffffffffffffffffffffffffffffff1673ffffffffffffffffffffffffffffffffffffffff1673ffffffffffffffffffffffffffffffffffffffff168152602001600782015481526020016008820160009054906101000a900473ffffffffffffffffffffffffffffffffffffffff1673ffffffffffffffffffffffffffffffffffffffff1673ffffffffffffffffffffffffffffffffffffffff16815260200160098201548152602001600a820160009054906101000a900473ffffffffffffffffffffffffffffffffffffffff1673ffffffffffffffffffffffffffffffffffffffff1673ffffffffffffffffffffffffffffffffffffffff168152602001600b8201548152505090506125cd8160a0015182610120015130846101400151613831565b80610120015173ffffffffffffffffffffffffffffffffffffffff16847f43c168f1d9d74d73325ab680f380bc731699766781190d47b123572b01b2fa2883610140015160405161261e9190614e45565b60405180910390a350505050565b612634611b57565b15612674576040517f08c379a000000000000000000000000000000000000000000000000000000000815260040161266b90614c85565b60405180910390fd5b81600073ffffffffffffffffffffffffffffffffffffffff166003600083815260200190815260200160002060030160009054906101000a900473ffffffffffffffffffffffffffffffffffffffff1673ffffffffffffffffffffffffffffffffffffffff16141561271b576040517f08c379a000000000000000000000000000000000000000000000000000000000815260040161271290614d25565b60405180910390fd5b600060036000858152602001908152602001600020604051806101a00160405290816000820160009054906101000a900460ff166001811115612787577f4e487b7100000000000000000000000000000000000000000000000000000000600052602160045260246000fd5b60018111156127bf577f4e487b7100000000000000000000000000000000000000000000000000000000600052602160045260246000fd5b81526020016000820160019054906101000a900460ff1615151515815260200160018201548152602001600282015481526020016003820160009054906101000a900473ffffffffffffffffffffffffffffffffffffffff1673ffffffffffffffffffffffffffffffffffffffff1673ffffffffffffffffffffffffffffffffffffffff1681526020016004820160009054906101000a900473ffffffffffffffffffffffffffffffffffffffff1673ffffffffffffffffffffffffffffffffffffffff1673ffffffffffffffffffffffffffffffffffffffff168152602001600582015481526020016006820160009054906101000a900473ffffffffffffffffffffffffffffffffffffffff1673ffffffffffffffffffffffffffffffffffffffff1673ffffffffffffffffffffffffffffffffffffffff168152602001600782015481526020016008820160009054906101000a900473ffffffffffffffffffffffffffffffffffffffff1673ffffffffffffffffffffffffffffffffffffffff1673ffffffffffffffffffffffffffffffffffffffff16815260200160098201548152602001600a820160009054906101000a900473ffffffffffffffffffffffffffffffffffffffff1673ffffffffffffffffffffffffffffffffffffffff1673ffffffffffffffffffffffffffffffffffffffff168152602001600b8201548152505090508060200151612a0e576040517f08c379a0000000000000000000000000000000000000000000000000000000008152600401612a0590614b85565b60405180910390fd5b60006003600086815260200190815260200160002060000160016101000a81548160ff0219169083151502179055506000806001811115612a78577f4e487b7100000000000000000000000000000000000000000000000000000000600052602160045260246000fd5b82600001516001811115612ab5577f4e487b7100000000000000000000000000000000000000000000000000000000600052602160045260246000fd5b1415612c24574282604001511115612b02576040517f08c379a0000000000000000000000000000000000000000000000000000000008152600401612af990614c65565b60405180910390fd5b600082606001511480612b185750428260600151115b612b57576040517f08c379a0000000000000000000000000000000000000000000000000000000008152600401612b4e90614c45565b60405180910390fd5b838260c001511115612b9e576040517f08c379a0000000000000000000000000000000000000000000000000000000008152600401612b9590614dc5565b60405180910390fd5b612ba66135ca565b60036000878152602001908152602001600020600a0160006101000a81548173ffffffffffffffffffffffffffffffffffffffff021916908373ffffffffffffffffffffffffffffffffffffffff1602179055508360036000878152602001908152602001600020600b0181905550612c1d6135ca565b9050612e7a565b600180811115612c5d577f4e487b7100000000000000000000000000000000000000000000000000000000600052602160045260246000fd5b82600001516001811115612c9a577f4e487b7100000000000000000000000000000000000000000000000000000000600052602160045260246000fd5b1415612e7957600073ffffffffffffffffffffffffffffffffffffffff1682610120015173ffffffffffffffffffffffffffffffffffffffff161415612d15576040517f08c379a0000000000000000000000000000000000000000000000000000000008152600401612d0c90614da5565b60405180910390fd5b612d1d6135ca565b73ffffffffffffffffffffffffffffffffffffffff1682610120015173ffffffffffffffffffffffffffffffffffffffff16148015612d60575042826060015111155b80612da15750612d6e6135ca565b73ffffffffffffffffffffffffffffffffffffffff16826080015173ffffffffffffffffffffffffffffffffffffffff16145b80612dbc5750612dbb6000801b612db66135ca565b611c17565b5b612dfb576040517f08c379a0000000000000000000000000000000000000000000000000000000008152600401612df290614de5565b60405180910390fd5b81610120015160036000878152602001908152602001600020600a0160006101000a81548173ffffffffffffffffffffffffffffffffffffffff021916908373ffffffffffffffffffffffffffffffffffffffff16021790555081610140015160036000878152602001908152602001600020600b01819055503090505b5b60036000868152602001908152602001600020604051806101a00160405290816000820160009054906101000a900460ff166001811115612ee4577f4e487b7100000000000000000000000000000000000000000000000000000000600052602160045260246000fd5b6001811115612f1c577f4e487b7100000000000000000000000000000000000000000000000000000000600052602160045260246000fd5b81526020016000820160019054906101000a900460ff1615151515815260200160018201548152602001600282015481526020016003820160009054906101000a900473ffffffffffffffffffffffffffffffffffffffff1673ffffffffffffffffffffffffffffffffffffffff1673ffffffffffffffffffffffffffffffffffffffff1681526020016004820160009054906101000a900473ffffffffffffffffffffffffffffffffffffffff1673ffffffffffffffffffffffffffffffffffffffff1673ffffffffffffffffffffffffffffffffffffffff168152602001600582015481526020016006820160009054906101000a900473ffffffffffffffffffffffffffffffffffffffff1673ffffffffffffffffffffffffffffffffffffffff1673ffffffffffffffffffffffffffffffffffffffff168152602001600782015481526020016008820160009054906101000a900473ffffffffffffffffffffffffffffffffffffffff1673ffffffffffffffffffffffffffffffffffffffff1673ffffffffffffffffffffffffffffffffffffffff16815260200160098201548152602001600a820160009054906101000a900473ffffffffffffffffffffffffffffffffffffffff1673ffffffffffffffffffffffffffffffffffffffff1673ffffffffffffffffffffffffffffffffffffffff168152602001600b820154815250509150600082610180015111156132fb57600082610180015190506000670de0b6b3a76400007f000000000000000000000000000000000000000000000000000000000000000085610180015161317b9190614f0e565b6131859190614edd565b90506131b78460a00151847f000000000000000000000000000000000000000000000000000000000000000084613831565b80826131c39190614f68565b91508360e0015173ffffffffffffffffffffffffffffffffffffffff1663e814cb718561010001516040518263ffffffff1660e01b81526004016132079190614e45565b604080518083038186803b15801561321e57600080fd5b505afa92505050801561324f57506040513d601f19601f8201168201806040525081019061324c91906142b8565b60015b613258576132da565b8173ffffffffffffffffffffffffffffffffffffffff16866080015173ffffffffffffffffffffffffffffffffffffffff16146132d7576000670de0b6b3a7640000828861018001516132ab9190614f0e565b6132b59190614edd565b90506132c78760a00151878584613831565b80856132d39190614f68565b9450505b50505b60008211156132f8576132f78460a0015184866080015185613831565b5b50505b8160e0015173ffffffffffffffffffffffffffffffffffffffff166342842e0e308461016001518561010001516040518463ffffffff1660e01b815260040161334693929190614982565b600060405180830381600087803b15801561336057600080fd5b505af1158015613374573d6000803e3d6000fd5b5050505081610160015173ffffffffffffffffffffffffffffffffffffffff16857f1e7abafb1a786c4e6394b5c494f50a97e3802ff2ce462eca4fe6a2dd4e1f92e88461018001516040516133c99190614e45565b60405180910390a35050505050565b60006133f560016000848152602001908152602001600020613995565b9050919050565b61340682826139aa565b61342b81600160008581526020019081526020016000206136a290919063ffffffff16565b505050565b6000807f00000000000000000000000000000000000000000000000000000000000000007f0000000000000000000000000000000000000000000000000000000000000000915091509091565b7f65d7a28e3265b37a6474929f336521b332c1681b933f6cb9f3376673440d862a81565b6134ab82826139d3565b5050565b60006134d7836000018373ffffffffffffffffffffffffffffffffffffffff1660001b613ab3565b905092915050565b60007f7965db0b000000000000000000000000000000000000000000000000000000007bffffffffffffffffffffffffffffffffffffffffffffffffffffffff1916827bffffffffffffffffffffffffffffffffffffffffffffffffffffffff19161480613552575061355182613b23565b5b9050919050565b600080428410613569578361356b565b425b9050600080841461357c578361359e565b7fffffffffffffffffffffffffffffffffffffffffffffffffffffffffffffffff5b9050808211156135b3576000925050506135c4565b81816135bf9190614f68565b925050505b92915050565b600033905090565b600081600001549050919050565b6001816000016000828254019250508190555050565b6135ff8261146b565b6136108161360b6135ca565b613b8d565b61361a83836139d3565b505050565b6136276135ca565b73ffffffffffffffffffffffffffffffffffffffff168173ffffffffffffffffffffffffffffffffffffffff1614613694576040517f08c379a000000000000000000000000000000000000000000000000000000000815260040161368b90614e05565b60405180910390fd5b61369e8282613c2a565b5050565b60006136ca836000018373ffffffffffffffffffffffffffffffffffffffff1660001b613d0b565b905092915050565b6136da611b57565b613719576040517f08c379a000000000000000000000000000000000000000000000000000000000815260040161371090614b65565b60405180910390fd5b6000600260006101000a81548160ff0219169083151502179055507f5db9ee0a495bf2e6ff9c91a7834c1ba4fdd244a5e8aa4e537bd38aeae4b073aa61375d6135ca565b60405161376a9190614967565b60405180910390a1565b61377c611b57565b156137bc576040517f08c379a00000000000000000000000000000000000000000000000000000000081526004016137b390614c85565b60405180910390fd5b6001600260006101000a81548160ff0219169083151502179055507f62e78cea01bee320cd4e420270b5ea74000d11b0c9f74754ebdbfc544b05a2586138006135ca565b60405161380d9190614967565b60405180910390a1565b60006138268360000183613e91565b60001c905092915050565b60008490503073ffffffffffffffffffffffffffffffffffffffff168473ffffffffffffffffffffffffffffffffffffffff1614156138fd578073ffffffffffffffffffffffffffffffffffffffff1663a9059cbb84846040518363ffffffff1660e01b81526004016138a59291906149b9565b602060405180830381600087803b1580156138bf57600080fd5b505af11580156138d3573d6000803e3d6000fd5b505050506040513d601f19601f820116820180604052508101906138f791906142f4565b5061398e565b8073ffffffffffffffffffffffffffffffffffffffff166323b872dd8585856040518463ffffffff1660e01b815260040161393a93929190614982565b602060405180830381600087803b15801561395457600080fd5b505af1158015613968573d6000803e3d6000fd5b505050506040513d601f19601f8201168201806040525081019061398c91906142f4565b505b5050505050565b60006139a382600001613ee2565b9050919050565b6139b38261146b565b6139c4816139bf6135ca565b613b8d565b6139ce8383613c2a565b505050565b6139dd8282611c17565b613aaf57600160008084815260200190815260200160002060000160008373ffffffffffffffffffffffffffffffffffffffff1673ffffffffffffffffffffffffffffffffffffffff16815260200190815260200160002060006101000a81548160ff021916908315150217905550613a546135ca565b73ffffffffffffffffffffffffffffffffffffffff168173ffffffffffffffffffffffffffffffffffffffff16837f2f8788117e7eff1d82e926ec794901d17c78024a50270940304540a733656f0d60405160405180910390a45b5050565b6000613abf8383613ef3565b613b18578260000182908060018154018082558091505060019003906000526020600020016000909190919091505582600001805490508360010160008481526020019081526020016000208190555060019050613b1d565b600090505b92915050565b60007f01ffc9a7000000000000000000000000000000000000000000000000000000007bffffffffffffffffffffffffffffffffffffffffffffffffffffffff1916827bffffffffffffffffffffffffffffffffffffffffffffffffffffffff1916149050919050565b613b978282611c17565b613c2657613bbc8173ffffffffffffffffffffffffffffffffffffffff166014613f16565b613bca8360001c6020613f16565b604051602001613bdb92919061492d565b6040516020818303038152906040526040517f08c379a0000000000000000000000000000000000000000000000000000000008152600401613c1d9190614b23565b60405180910390fd5b5050565b613c348282611c17565b15613d0757600080600084815260200190815260200160002060000160008373ffffffffffffffffffffffffffffffffffffffff1673ffffffffffffffffffffffffffffffffffffffff16815260200190815260200160002060006101000a81548160ff021916908315150217905550613cac6135ca565b73ffffffffffffffffffffffffffffffffffffffff168173ffffffffffffffffffffffffffffffffffffffff16837ff6391f5c32d9c69d2a47ea670b442974b53935d1edc7fd64eb21e047a839171b60405160405180910390a45b5050565b60008083600101600084815260200190815260200160002054905060008114613e85576000600182613d3d9190614f68565b9050600060018660000180549050613d559190614f68565b9050818114613e10576000866000018281548110613d9c577f4e487b7100000000000000000000000000000000000000000000000000000000600052603260045260246000fd5b9060005260206000200154905080876000018481548110613de6577f4e487b7100000000000000000000000000000000000000000000000000000000600052603260045260246000fd5b90600052602060002001819055508387600101600083815260200190815260200160002081905550505b85600001805480613e4a577f4e487b7100000000000000000000000000000000000000000000000000000000600052603160045260246000fd5b600190038181906000526020600020016000905590558560010160008681526020019081526020016000206000905560019350505050613e8b565b60009150505b92915050565b6000826000018281548110613ecf577f4e487b7100000000000000000000000000000000000000000000000000000000600052603260045260246000fd5b9060005260206000200154905092915050565b600081600001805490509050919050565b600080836001016000848152602001908152602001600020541415905092915050565b606060006002836002613f299190614f0e565b613f339190614e87565b67ffffffffffffffff811115613f72577f4e487b7100000000000000000000000000000000000000000000000000000000600052604160045260246000fd5b6040519080825280601f01601f191660200182016040528015613fa45781602001600182028036833780820191505090505b5090507f300000000000000000000000000000000000000000000000000000000000000081600081518110614002577f4e487b7100000000000000000000000000000000000000000000000000000000600052603260045260246000fd5b60200101907effffffffffffffffffffffffffffffffffffffffffffffffffffffffffffff1916908160001a9053507f78000000000000000000000000000000000000000000000000000000000000008160018151811061408c577f4e487b7100000000000000000000000000000000000000000000000000000000600052603260045260246000fd5b60200101907effffffffffffffffffffffffffffffffffffffffffffffffffffffffffffff1916908160001a905350600060018460026140cc9190614f0e565b6140d69190614e87565b90505b60018111156141c2577f3031323334353637383961626364656600000000000000000000000000000000600f86166010811061413e577f4e487b7100000000000000000000000000000000000000000000000000000000600052603260045260246000fd5b1a60f81b82828151811061417b577f4e487b7100000000000000000000000000000000000000000000000000000000600052603260045260246000fd5b60200101907effffffffffffffffffffffffffffffffffffffffffffffffffffffffffffff1916908160001a905350600485901c9450806141bb90615072565b90506140d9565b5060008414614206576040517f08c379a00000000000000000000000000000000000000000000000000000000081526004016141fd90614b45565b60405180910390fd5b8091505092915050565b60008135905061421f816158e2565b92915050565b600081519050614234816158e2565b92915050565b600081519050614249816158f9565b92915050565b60008135905061425e81615910565b92915050565b60008135905061427381615927565b92915050565b6000813590506142888161593e565b92915050565b60008135905061429d8161594e565b92915050565b6000815190506142b28161594e565b92915050565b600080604083850312156142cb57600080fd5b60006142d985828601614225565b92505060206142ea858286016142a3565b9150509250929050565b60006020828403121561430657600080fd5b60006143148482850161423a565b91505092915050565b60006020828403121561432f57600080fd5b600061433d8482850161424f565b91505092915050565b6000806040838503121561435957600080fd5b60006143678582860161424f565b925050602061437885828601614210565b9150509250929050565b6000806040838503121561439557600080fd5b60006143a38582860161424f565b92505060206143b48582860161428e565b9150509250929050565b6000602082840312156143d057600080fd5b60006143de84828501614264565b91505092915050565b600080600080600080600060e0888a03121561440257600080fd5b60006144108a828b01614279565b97505060206144218a828b0161428e565b96505060406144328a828b0161428e565b95505060606144438a828b01614210565b94505060806144548a828b0161428e565b93505060a06144658a828b01614210565b92505060c06144768a828b0161428e565b91505092959891949750929550565b60006020828403121561449757600080fd5b60006144a58482850161428e565b91505092915050565b600080604083850312156144c157600080fd5b60006144cf8582860161428e565b92505060206144e08582860161428e565b9150509250929050565b6144f381614f9c565b82525050565b61450281614fae565b82525050565b61451181614fba565b82525050565b6145208161502d565b82525050565b600061453182614e60565b61453b8185614e6b565b935061454b81856020860161503f565b61455481615129565b840191505092915050565b600061456a82614e60565b6145748185614e7c565b935061458481856020860161503f565b80840191505092915050565b600061459d602083614e6b565b91506145a88261513a565b602082019050919050565b60006145c0601483614e6b565b91506145cb82615163565b602082019050919050565b60006145e3602f83614e6b565b91506145ee8261518c565b604082019050919050565b6000614606603383614e6b565b9150614611826151db565b604082019050919050565b6000614629603983614e6b565b91506146348261522a565b604082019050919050565b600061464c602e83614e6b565b915061465782615279565b604082019050919050565b600061466f605083614e6b565b915061467a826152c8565b606082019050919050565b6000614692603983614e6b565b915061469d8261533d565b604082019050919050565b60006146b5603a83614e6b565b91506146c08261538c565b604082019050919050565b60006146d8603b83614e6b565b91506146e3826153db565b604082019050919050565b60006146fb601083614e6b565b91506147068261542a565b602082019050919050565b600061471e603583614e6b565b915061472982615453565b604082019050919050565b6000614741603583614e6b565b915061474c826154a2565b604082019050919050565b6000614764603183614e6b565b915061476f826154f1565b604082019050919050565b6000614787603083614e6b565b915061479282615540565b604082019050919050565b60006147aa602683614e6b565b91506147b58261558f565b604082019050919050565b60006147cd602c83614e6b565b91506147d8826155de565b604082019050919050565b60006147f0603a83614e6b565b91506147fb8261562d565b604082019050919050565b6000614813601783614e7c565b915061481e8261567c565b601782019050919050565b6000614836603583614e6b565b9150614841826156a5565b604082019050919050565b6000614859603e83614e6b565b9150614864826156f4565b604082019050919050565b600061487c603a83614e6b565b915061488782615743565b604082019050919050565b600061489f601183614e7c565b91506148aa82615792565b601182019050919050565b60006148c2604c83614e6b565b91506148cd826157bb565b606082019050919050565b60006148e5602f83614e6b565b91506148f082615830565b604082019050919050565b6000614908602c83614e6b565b91506149138261587f565b604082019050919050565b61492781615023565b82525050565b600061493882614806565b9150614944828561455f565b915061494f82614892565b915061495b828461455f565b91508190509392505050565b600060208201905061497c60008301846144ea565b92915050565b600060608201905061499760008301866144ea565b6149a460208301856144ea565b6149b1604083018461491e565b949350505050565b60006040820190506149ce60008301856144ea565b6149db602083018461491e565b9392505050565b60006020820190506149f760008301846144f9565b92915050565b6000602082019050614a126000830184614508565b92915050565b600061014082019050614a2e600083018d614517565b614a3b602083018c6144f9565b614a48604083018b61491e565b614a55606083018a61491e565b614a6260808301896144ea565b614a6f60a08301886144ea565b614a7c60c083018761491e565b614a8960e083018661491e565b614a976101008301856144ea565b614aa561012083018461491e565b9b9a5050505050505050505050565b600060e082019050614ac9600083018a614517565b614ad6602083018961491e565b614ae3604083018861491e565b614af060608301876144ea565b614afd608083018661491e565b614b0a60a08301856144ea565b614b1760c083018461491e565b98975050505050505050565b60006020820190508181036000830152614b3d8184614526565b905092915050565b60006020820190508181036000830152614b5e81614590565b9050919050565b60006020820190508181036000830152614b7e816145b3565b9050919050565b60006020820190508181036000830152614b9e816145d6565b9050919050565b60006020820190508181036000830152614bbe816145f9565b9050919050565b60006020820190508181036000830152614bde8161461c565b9050919050565b60006020820190508181036000830152614bfe8161463f565b9050919050565b60006020820190508181036000830152614c1e81614662565b9050919050565b60006020820190508181036000830152614c3e81614685565b9050919050565b60006020820190508181036000830152614c5e816146a8565b9050919050565b60006020820190508181036000830152614c7e816146cb565b9050919050565b60006020820190508181036000830152614c9e816146ee565b9050919050565b60006020820190508181036000830152614cbe81614711565b9050919050565b60006020820190508181036000830152614cde81614734565b9050919050565b60006020820190508181036000830152614cfe81614757565b9050919050565b60006020820190508181036000830152614d1e8161477a565b9050919050565b60006020820190508181036000830152614d3e8161479d565b9050919050565b60006020820190508181036000830152614d5e816147c0565b9050919050565b60006020820190508181036000830152614d7e816147e3565b9050919050565b60006020820190508181036000830152614d9e81614829565b9050919050565b60006020820190508181036000830152614dbe8161484c565b9050919050565b60006020820190508181036000830152614dde8161486f565b9050919050565b60006020820190508181036000830152614dfe816148b5565b9050919050565b60006020820190508181036000830152614e1e816148d8565b9050919050565b60006020820190508181036000830152614e3e816148fb565b9050919050565b6000602082019050614e5a600083018461491e565b92915050565b600081519050919050565b600082825260208201905092915050565b600081905092915050565b6000614e9282615023565b9150614e9d83615023565b9250827fffffffffffffffffffffffffffffffffffffffffffffffffffffffffffffffff03821115614ed257614ed161509c565b5b828201905092915050565b6000614ee882615023565b9150614ef383615023565b925082614f0357614f026150cb565b5b828204905092915050565b6000614f1982615023565b9150614f2483615023565b9250817fffffffffffffffffffffffffffffffffffffffffffffffffffffffffffffffff0483118215151615614f5d57614f5c61509c565b5b828202905092915050565b6000614f7382615023565b9150614f7e83615023565b925082821015614f9157614f9061509c565b5b828203905092915050565b6000614fa782615003565b9050919050565b60008115159050919050565b6000819050919050565b60007fffffffff0000000000000000000000000000000000000000000000000000000082169050919050565b6000819050614ffe826158ce565b919050565b600073ffffffffffffffffffffffffffffffffffffffff82169050919050565b6000819050919050565b600061503882614ff0565b9050919050565b60005b8381101561505d578082015181840152602081019050615042565b8381111561506c576000848401525b50505050565b600061507d82615023565b915060008214156150915761509061509c565b5b600182039050919050565b7f4e487b7100000000000000000000000000000000000000000000000000000000600052601160045260246000fd5b7f4e487b7100000000000000000000000000000000000000000000000000000000600052601260045260246000fd5b7f4e487b7100000000000000000000000000000000000000000000000000000000600052602160045260246000fd5b6000601f19601f8301169050919050565b7f537472696e67733a20686578206c656e67746820696e73756666696369656e74600082015250565b7f5061757361626c653a206e6f7420706175736564000000000000000000000000600082015250565b7f4c656d6f6e6164654d61726b6574706c6163653a206f72646572206d7573742060008201527f6265206f70656e20746f2066696c6c0000000000000000000000000000000000602082015250565b7f4c656d6f6e6164654d61726b6574706c6163653a206d7573742068617665207060008201527f617573657220726f6c6520746f20706175736500000000000000000000000000602082015250565b7f4c656d6f6e6164654d61726b6574706c6163653a206f72646572206d7573742060008201527f6265206f70656e20746f20626964202d20746f6f206c61746500000000000000602082015250565b7f4c656d6f6e6164654d61726b6574706c6163653a206f72646572206d7573742060008201527f6265206f70656e20746f20626964000000000000000000000000000000000000602082015250565b7f4c656d6f6e6164654d61726b6574706c6163653a206f72646572206f66206b6960008201527f6e642061756374696f6e206d757374206e6f74206265206f70656e20666f722060208201527f6d6f7265207468616e2037206461797300000000000000000000000000000000604082015250565b7f4c656d6f6e6164654d61726b6574706c6163653a206f72646572206d7573742060008201527f6265206f66206b696e642061756374696f6e20746f2062696400000000000000602082015250565b7f4c656d6f6e6164654d61726b6574706c6163653a206f72646572206d7573742060008201527f6265206f70656e20746f2066696c6c202d20746f6f206c617465000000000000602082015250565b7f4c656d6f6e6164654d61726b6574706c6163653a206f72646572206d7573742060008201527f6265206f70656e20746f2066696c6c202d20746f6f206561726c790000000000602082015250565b7f5061757361626c653a2070617573656400000000000000000000000000000000600082015250565b7f4c656d6f6e6164654d61726b6574706c6163653a206f72646572206d7573742060008201527f6265206f70656e20617420736f6d6520706f696e740000000000000000000000602082015250565b7f4c656d6f6e6164654d61726b6574706c6163653a206f72646572206d7573742060008201527f68617665206e6f2062696420746f2063616e63656c0000000000000000000000602082015250565b7f4c656d6f6e6164654d61726b6574706c6163653a206f72646572206d7573742060008201527f6265206f70656e20746f2063616e63656c000000000000000000000000000000602082015250565b7f4c656d6f6e6164654d61726b6574706c6163653a206d7573742062652074686560008201527f206d616b657220746f2063616e63656c00000000000000000000000000000000602082015250565b7f4c656d6f6e6164654d61726b6574706c6163653a206f72646572206e6f6e657860008201527f697374656e740000000000000000000000000000000000000000000000000000602082015250565b7f4c656d6f6e6164654d61726b6574706c6163653a206d757374206d617463682060008201527f707269636520746f206269640000000000000000000000000000000000000000602082015250565b7f4c656d6f6e6164654d61726b6574706c6163653a206f72646572206d7573742060008201527f6265206f70656e20746f20626964202d20746f6f206561726c79000000000000602082015250565b7f416363657373436f6e74726f6c3a206163636f756e7420000000000000000000600082015250565b7f4c656d6f6e6164654d61726b6574706c6163653a206d7573742068617665207060008201527f617573657220726f6c6520746f20756e70617573650000000000000000000000602082015250565b7f4c656d6f6e6164654d61726b6574706c6163653a206f72646572206d7573742060008201527f686176652062696420746f2066696c6c2061756374696f6e206f726465720000602082015250565b7f4c656d6f6e6164654d61726b6574706c6163653a206d757374206d617463682060008201527f707269636520746f2066696c6c20646972656374206f72646572000000000000602082015250565b7f206973206d697373696e6720726f6c6520000000000000000000000000000000600082015250565b7f4c656d6f6e6164654d61726b6574706c6163653a206d7573742062652074686560008201527f206d616b6572206f722066696e616c2062696464657220746f2066696c6c206160208201527f756374696f6e206f726465720000000000000000000000000000000000000000604082015250565b7f416363657373436f6e74726f6c3a2063616e206f6e6c792072656e6f756e636560008201527f20726f6c657320666f722073656c660000000000000000000000000000000000602082015250565b7f4c656d6f6e6164654d61726b6574706c6163653a206d7573742073757270617360008201527f732062696420746f206269640000000000000000000000000000000000000000602082015250565b600281106158df576158de6150fa565b5b50565b6158eb81614f9c565b81146158f657600080fd5b50565b61590281614fae565b811461590d57600080fd5b50565b61591981614fba565b811461592457600080fd5b50565b61593081614fc4565b811461593b57600080fd5b50565b6002811061594b57600080fd5b50565b61595781615023565b811461596257600080fd5b5056fea2646970667358221220307c6b44e8f85cfdd2d89a9432de07ce72d3f45964d76fa6817b53b29d4081ad64736f6c63430008040033",
  "linkReferences": {},
  "deployedLinkReferences": {}
}